Archive member included to satisfy reference by file (symbol)

c:/st/stm32cubeide_1.0.2/stm32cubeide/plugins/com.st.stm32cube.ide.mcu.externaltools.gnu-tools-for-stm32.7-2018-q2-update.win32_1.0.0.201904181610/tools/bin/../lib/gcc/arm-none-eabi/7.3.1/../../../../arm-none-eabi/lib/thumb/v6-m\libstdc++_nano.a(new_op.o)
                              UsrSrc/MsgProcessor.o (operator new(unsigned int))
c:/st/stm32cubeide_1.0.2/stm32cubeide/plugins/com.st.stm32cube.ide.mcu.externaltools.gnu-tools-for-stm32.7-2018-q2-update.win32_1.0.0.201904181610/tools/bin/../lib/gcc/arm-none-eabi/7.3.1/../../../../arm-none-eabi/lib/thumb/v6-m\libstdc++_nano.a(new_handler.o)
                              c:/st/stm32cubeide_1.0.2/stm32cubeide/plugins/com.st.stm32cube.ide.mcu.externaltools.gnu-tools-for-stm32.7-2018-q2-update.win32_1.0.0.201904181610/tools/bin/../lib/gcc/arm-none-eabi/7.3.1/../../../../arm-none-eabi/lib/thumb/v6-m\libstdc++_nano.a(new_op.o) (std::get_new_handler())
c:/st/stm32cubeide_1.0.2/stm32cubeide/plugins/com.st.stm32cube.ide.mcu.externaltools.gnu-tools-for-stm32.7-2018-q2-update.win32_1.0.0.201904181610/tools/bin/../lib/gcc/arm-none-eabi/7.3.1/../../../../arm-none-eabi/lib/thumb/v6-m\libstdc++_nano.a(del_op.o)
                              UsrSrc/MsgProcessor.o (operator delete(void*))
c:/st/stm32cubeide_1.0.2/stm32cubeide/plugins/com.st.stm32cube.ide.mcu.externaltools.gnu-tools-for-stm32.7-2018-q2-update.win32_1.0.0.201904181610/tools/bin/../lib/gcc/arm-none-eabi/7.3.1/../../../../arm-none-eabi/lib/thumb/v6-m\libstdc++_nano.a(functexcept.o)
                              UsrSrc/MsgProcessor.o (std::__throw_bad_alloc())
c:/st/stm32cubeide_1.0.2/stm32cubeide/plugins/com.st.stm32cube.ide.mcu.externaltools.gnu-tools-for-stm32.7-2018-q2-update.win32_1.0.0.201904181610/tools/bin/../lib/gcc/arm-none-eabi/7.3.1/../../../../arm-none-eabi/lib/thumb/v6-m\libstdc++_nano.a(snprintf_lite.o)
                              c:/st/stm32cubeide_1.0.2/stm32cubeide/plugins/com.st.stm32cube.ide.mcu.externaltools.gnu-tools-for-stm32.7-2018-q2-update.win32_1.0.0.201904181610/tools/bin/../lib/gcc/arm-none-eabi/7.3.1/../../../../arm-none-eabi/lib/thumb/v6-m\libstdc++_nano.a(functexcept.o) (__gnu_cxx::__snprintf_lite(char*, unsigned int, char const*, std::__va_list))
c:/st/stm32cubeide_1.0.2/stm32cubeide/plugins/com.st.stm32cube.ide.mcu.externaltools.gnu-tools-for-stm32.7-2018-q2-update.win32_1.0.0.201904181610/tools/bin/../lib/gcc/arm-none-eabi/7.3.1/../../../../arm-none-eabi/lib/thumb/v6-m\libm.a(lib_a-s_copysign.o)
                              UsrSrc/Servo.o (copysign)
c:/st/stm32cubeide_1.0.2/stm32cubeide/plugins/com.st.stm32cube.ide.mcu.externaltools.gnu-tools-for-stm32.7-2018-q2-update.win32_1.0.0.201904181610/tools/bin/../lib/gcc/arm-none-eabi/7.3.1/../../../../arm-none-eabi/lib/thumb/v6-m\libc_nano.a(lib_a-abort.o)
                              c:/st/stm32cubeide_1.0.2/stm32cubeide/plugins/com.st.stm32cube.ide.mcu.externaltools.gnu-tools-for-stm32.7-2018-q2-update.win32_1.0.0.201904181610/tools/bin/../lib/gcc/arm-none-eabi/7.3.1/../../../../arm-none-eabi/lib/thumb/v6-m\libstdc++_nano.a(new_op.o) (abort)
c:/st/stm32cubeide_1.0.2/stm32cubeide/plugins/com.st.stm32cube.ide.mcu.externaltools.gnu-tools-for-stm32.7-2018-q2-update.win32_1.0.0.201904181610/tools/bin/../lib/gcc/arm-none-eabi/7.3.1/../../../../arm-none-eabi/lib/thumb/v6-m\libc_nano.a(lib_a-errno.o)
                              Core/Src/syscalls.o (__errno)
c:/st/stm32cubeide_1.0.2/stm32cubeide/plugins/com.st.stm32cube.ide.mcu.externaltools.gnu-tools-for-stm32.7-2018-q2-update.win32_1.0.0.201904181610/tools/bin/../lib/gcc/arm-none-eabi/7.3.1/../../../../arm-none-eabi/lib/thumb/v6-m\libc_nano.a(lib_a-exit.o)
                              c:/st/stm32cubeide_1.0.2/stm32cubeide/plugins/com.st.stm32cube.ide.mcu.externaltools.gnu-tools-for-stm32.7-2018-q2-update.win32_1.0.0.201904181610/tools/bin/../lib/gcc/arm-none-eabi/7.3.1/../../../../arm-none-eabi/lib/thumb/v6-m/crt0.o (exit)
c:/st/stm32cubeide_1.0.2/stm32cubeide/plugins/com.st.stm32cube.ide.mcu.externaltools.gnu-tools-for-stm32.7-2018-q2-update.win32_1.0.0.201904181610/tools/bin/../lib/gcc/arm-none-eabi/7.3.1/../../../../arm-none-eabi/lib/thumb/v6-m\libc_nano.a(lib_a-impure.o)
                              c:/st/stm32cubeide_1.0.2/stm32cubeide/plugins/com.st.stm32cube.ide.mcu.externaltools.gnu-tools-for-stm32.7-2018-q2-update.win32_1.0.0.201904181610/tools/bin/../lib/gcc/arm-none-eabi/7.3.1/../../../../arm-none-eabi/lib/thumb/v6-m\libc_nano.a(lib_a-exit.o) (_global_impure_ptr)
c:/st/stm32cubeide_1.0.2/stm32cubeide/plugins/com.st.stm32cube.ide.mcu.externaltools.gnu-tools-for-stm32.7-2018-q2-update.win32_1.0.0.201904181610/tools/bin/../lib/gcc/arm-none-eabi/7.3.1/../../../../arm-none-eabi/lib/thumb/v6-m\libc_nano.a(lib_a-init.o)
                              c:/st/stm32cubeide_1.0.2/stm32cubeide/plugins/com.st.stm32cube.ide.mcu.externaltools.gnu-tools-for-stm32.7-2018-q2-update.win32_1.0.0.201904181610/tools/bin/../lib/gcc/arm-none-eabi/7.3.1/../../../../arm-none-eabi/lib/thumb/v6-m/crt0.o (__libc_init_array)
c:/st/stm32cubeide_1.0.2/stm32cubeide/plugins/com.st.stm32cube.ide.mcu.externaltools.gnu-tools-for-stm32.7-2018-q2-update.win32_1.0.0.201904181610/tools/bin/../lib/gcc/arm-none-eabi/7.3.1/../../../../arm-none-eabi/lib/thumb/v6-m\libc_nano.a(lib_a-malloc.o)
                              c:/st/stm32cubeide_1.0.2/stm32cubeide/plugins/com.st.stm32cube.ide.mcu.externaltools.gnu-tools-for-stm32.7-2018-q2-update.win32_1.0.0.201904181610/tools/bin/../lib/gcc/arm-none-eabi/7.3.1/../../../../arm-none-eabi/lib/thumb/v6-m\libstdc++_nano.a(new_op.o) (malloc)
c:/st/stm32cubeide_1.0.2/stm32cubeide/plugins/com.st.stm32cube.ide.mcu.externaltools.gnu-tools-for-stm32.7-2018-q2-update.win32_1.0.0.201904181610/tools/bin/../lib/gcc/arm-none-eabi/7.3.1/../../../../arm-none-eabi/lib/thumb/v6-m\libc_nano.a(lib_a-memcpy-stub.o)
                              UsrSrc/MsgProcessor.o (memcpy)
c:/st/stm32cubeide_1.0.2/stm32cubeide/plugins/com.st.stm32cube.ide.mcu.externaltools.gnu-tools-for-stm32.7-2018-q2-update.win32_1.0.0.201904181610/tools/bin/../lib/gcc/arm-none-eabi/7.3.1/../../../../arm-none-eabi/lib/thumb/v6-m\libc_nano.a(lib_a-memmove.o)
                              UsrSrc/MsgProcessor.o (memmove)
c:/st/stm32cubeide_1.0.2/stm32cubeide/plugins/com.st.stm32cube.ide.mcu.externaltools.gnu-tools-for-stm32.7-2018-q2-update.win32_1.0.0.201904181610/tools/bin/../lib/gcc/arm-none-eabi/7.3.1/../../../../arm-none-eabi/lib/thumb/v6-m\libc_nano.a(lib_a-memset.o)
                              c:/st/stm32cubeide_1.0.2/stm32cubeide/plugins/com.st.stm32cube.ide.mcu.externaltools.gnu-tools-for-stm32.7-2018-q2-update.win32_1.0.0.201904181610/tools/bin/../lib/gcc/arm-none-eabi/7.3.1/../../../../arm-none-eabi/lib/thumb/v6-m/crt0.o (memset)
c:/st/stm32cubeide_1.0.2/stm32cubeide/plugins/com.st.stm32cube.ide.mcu.externaltools.gnu-tools-for-stm32.7-2018-q2-update.win32_1.0.0.201904181610/tools/bin/../lib/gcc/arm-none-eabi/7.3.1/../../../../arm-none-eabi/lib/thumb/v6-m\libc_nano.a(lib_a-nano-freer.o)
                              c:/st/stm32cubeide_1.0.2/stm32cubeide/plugins/com.st.stm32cube.ide.mcu.externaltools.gnu-tools-for-stm32.7-2018-q2-update.win32_1.0.0.201904181610/tools/bin/../lib/gcc/arm-none-eabi/7.3.1/../../../../arm-none-eabi/lib/thumb/v6-m\libc_nano.a(lib_a-malloc.o) (_free_r)
c:/st/stm32cubeide_1.0.2/stm32cubeide/plugins/com.st.stm32cube.ide.mcu.externaltools.gnu-tools-for-stm32.7-2018-q2-update.win32_1.0.0.201904181610/tools/bin/../lib/gcc/arm-none-eabi/7.3.1/../../../../arm-none-eabi/lib/thumb/v6-m\libc_nano.a(lib_a-nano-mallocr.o)
                              c:/st/stm32cubeide_1.0.2/stm32cubeide/plugins/com.st.stm32cube.ide.mcu.externaltools.gnu-tools-for-stm32.7-2018-q2-update.win32_1.0.0.201904181610/tools/bin/../lib/gcc/arm-none-eabi/7.3.1/../../../../arm-none-eabi/lib/thumb/v6-m\libc_nano.a(lib_a-malloc.o) (_malloc_r)
c:/st/stm32cubeide_1.0.2/stm32cubeide/plugins/com.st.stm32cube.ide.mcu.externaltools.gnu-tools-for-stm32.7-2018-q2-update.win32_1.0.0.201904181610/tools/bin/../lib/gcc/arm-none-eabi/7.3.1/../../../../arm-none-eabi/lib/thumb/v6-m\libc_nano.a(lib_a-sbrkr.o)
                              c:/st/stm32cubeide_1.0.2/stm32cubeide/plugins/com.st.stm32cube.ide.mcu.externaltools.gnu-tools-for-stm32.7-2018-q2-update.win32_1.0.0.201904181610/tools/bin/../lib/gcc/arm-none-eabi/7.3.1/../../../../arm-none-eabi/lib/thumb/v6-m\libc_nano.a(lib_a-nano-mallocr.o) (_sbrk_r)
c:/st/stm32cubeide_1.0.2/stm32cubeide/plugins/com.st.stm32cube.ide.mcu.externaltools.gnu-tools-for-stm32.7-2018-q2-update.win32_1.0.0.201904181610/tools/bin/../lib/gcc/arm-none-eabi/7.3.1/../../../../arm-none-eabi/lib/thumb/v6-m\libc_nano.a(lib_a-signal.o)
                              c:/st/stm32cubeide_1.0.2/stm32cubeide/plugins/com.st.stm32cube.ide.mcu.externaltools.gnu-tools-for-stm32.7-2018-q2-update.win32_1.0.0.201904181610/tools/bin/../lib/gcc/arm-none-eabi/7.3.1/../../../../arm-none-eabi/lib/thumb/v6-m\libc_nano.a(lib_a-abort.o) (raise)
c:/st/stm32cubeide_1.0.2/stm32cubeide/plugins/com.st.stm32cube.ide.mcu.externaltools.gnu-tools-for-stm32.7-2018-q2-update.win32_1.0.0.201904181610/tools/bin/../lib/gcc/arm-none-eabi/7.3.1/../../../../arm-none-eabi/lib/thumb/v6-m\libc_nano.a(lib_a-signalr.o)
                              c:/st/stm32cubeide_1.0.2/stm32cubeide/plugins/com.st.stm32cube.ide.mcu.externaltools.gnu-tools-for-stm32.7-2018-q2-update.win32_1.0.0.201904181610/tools/bin/../lib/gcc/arm-none-eabi/7.3.1/../../../../arm-none-eabi/lib/thumb/v6-m\libc_nano.a(lib_a-signal.o) (_kill_r)
c:/st/stm32cubeide_1.0.2/stm32cubeide/plugins/com.st.stm32cube.ide.mcu.externaltools.gnu-tools-for-stm32.7-2018-q2-update.win32_1.0.0.201904181610/tools/bin/../lib/gcc/arm-none-eabi/7.3.1/../../../../arm-none-eabi/lib/thumb/v6-m\libc_nano.a(lib_a-strlen.o)
                              c:/st/stm32cubeide_1.0.2/stm32cubeide/plugins/com.st.stm32cube.ide.mcu.externaltools.gnu-tools-for-stm32.7-2018-q2-update.win32_1.0.0.201904181610/tools/bin/../lib/gcc/arm-none-eabi/7.3.1/../../../../arm-none-eabi/lib/thumb/v6-m\libstdc++_nano.a(functexcept.o) (strlen)
c:/st/stm32cubeide_1.0.2/stm32cubeide/plugins/com.st.stm32cube.ide.mcu.externaltools.gnu-tools-for-stm32.7-2018-q2-update.win32_1.0.0.201904181610/tools/bin/../lib/gcc/arm-none-eabi/7.3.1/../../../../arm-none-eabi/lib/thumb/v6-m\libc_nano.a(lib_a-mlock.o)
                              c:/st/stm32cubeide_1.0.2/stm32cubeide/plugins/com.st.stm32cube.ide.mcu.externaltools.gnu-tools-for-stm32.7-2018-q2-update.win32_1.0.0.201904181610/tools/bin/../lib/gcc/arm-none-eabi/7.3.1/../../../../arm-none-eabi/lib/thumb/v6-m\libc_nano.a(lib_a-nano-freer.o) (__malloc_lock)
c:/st/stm32cubeide_1.0.2/stm32cubeide/plugins/com.st.stm32cube.ide.mcu.externaltools.gnu-tools-for-stm32.7-2018-q2-update.win32_1.0.0.201904181610/tools/bin/../lib/gcc/arm-none-eabi/7.3.1/../../../../arm-none-eabi/lib/thumb/v6-m\libc_nano.a(lib_a-reent.o)
                              c:/st/stm32cubeide_1.0.2/stm32cubeide/plugins/com.st.stm32cube.ide.mcu.externaltools.gnu-tools-for-stm32.7-2018-q2-update.win32_1.0.0.201904181610/tools/bin/../lib/gcc/arm-none-eabi/7.3.1/../../../../arm-none-eabi/lib/thumb/v6-m\libc_nano.a(lib_a-sbrkr.o) (errno)
c:/st/stm32cubeide_1.0.2/stm32cubeide/plugins/com.st.stm32cube.ide.mcu.externaltools.gnu-tools-for-stm32.7-2018-q2-update.win32_1.0.0.201904181610/tools/bin/../lib/gcc/arm-none-eabi/7.3.1/thumb/v6-m\libgcc.a(_udivsi3.o)
                              Core/Src/system_stm32f0xx.o (__aeabi_uidiv)
c:/st/stm32cubeide_1.0.2/stm32cubeide/plugins/com.st.stm32cube.ide.mcu.externaltools.gnu-tools-for-stm32.7-2018-q2-update.win32_1.0.0.201904181610/tools/bin/../lib/gcc/arm-none-eabi/7.3.1/thumb/v6-m\libgcc.a(_dvmd_tls.o)
                              c:/st/stm32cubeide_1.0.2/stm32cubeide/plugins/com.st.stm32cube.ide.mcu.externaltools.gnu-tools-for-stm32.7-2018-q2-update.win32_1.0.0.201904181610/tools/bin/../lib/gcc/arm-none-eabi/7.3.1/thumb/v6-m\libgcc.a(_udivsi3.o) (__aeabi_idiv0)
c:/st/stm32cubeide_1.0.2/stm32cubeide/plugins/com.st.stm32cube.ide.mcu.externaltools.gnu-tools-for-stm32.7-2018-q2-update.win32_1.0.0.201904181610/tools/bin/../lib/gcc/arm-none-eabi/7.3.1/thumb/v6-m\libgcc.a(_arm_cmpdf2.o)
                              UsrSrc/PID.o (__aeabi_dcmpeq)
c:/st/stm32cubeide_1.0.2/stm32cubeide/plugins/com.st.stm32cube.ide.mcu.externaltools.gnu-tools-for-stm32.7-2018-q2-update.win32_1.0.0.201904181610/tools/bin/../lib/gcc/arm-none-eabi/7.3.1/thumb/v6-m\libgcc.a(_fixunsdfsi.o)
                              UsrSrc/MotorDriver.o (__aeabi_d2uiz)
c:/st/stm32cubeide_1.0.2/stm32cubeide/plugins/com.st.stm32cube.ide.mcu.externaltools.gnu-tools-for-stm32.7-2018-q2-update.win32_1.0.0.201904181610/tools/bin/../lib/gcc/arm-none-eabi/7.3.1/thumb/v6-m\libgcc.a(adddf3.o)
                              UsrSrc/PID.o (__aeabi_dadd)
c:/st/stm32cubeide_1.0.2/stm32cubeide/plugins/com.st.stm32cube.ide.mcu.externaltools.gnu-tools-for-stm32.7-2018-q2-update.win32_1.0.0.201904181610/tools/bin/../lib/gcc/arm-none-eabi/7.3.1/thumb/v6-m\libgcc.a(divdf3.o)
                              UsrSrc/MotorDriver.o (__aeabi_ddiv)
c:/st/stm32cubeide_1.0.2/stm32cubeide/plugins/com.st.stm32cube.ide.mcu.externaltools.gnu-tools-for-stm32.7-2018-q2-update.win32_1.0.0.201904181610/tools/bin/../lib/gcc/arm-none-eabi/7.3.1/thumb/v6-m\libgcc.a(eqdf2.o)
                              c:/st/stm32cubeide_1.0.2/stm32cubeide/plugins/com.st.stm32cube.ide.mcu.externaltools.gnu-tools-for-stm32.7-2018-q2-update.win32_1.0.0.201904181610/tools/bin/../lib/gcc/arm-none-eabi/7.3.1/thumb/v6-m\libgcc.a(_arm_cmpdf2.o) (__eqdf2)
c:/st/stm32cubeide_1.0.2/stm32cubeide/plugins/com.st.stm32cube.ide.mcu.externaltools.gnu-tools-for-stm32.7-2018-q2-update.win32_1.0.0.201904181610/tools/bin/../lib/gcc/arm-none-eabi/7.3.1/thumb/v6-m\libgcc.a(gedf2.o)
                              c:/st/stm32cubeide_1.0.2/stm32cubeide/plugins/com.st.stm32cube.ide.mcu.externaltools.gnu-tools-for-stm32.7-2018-q2-update.win32_1.0.0.201904181610/tools/bin/../lib/gcc/arm-none-eabi/7.3.1/thumb/v6-m\libgcc.a(_arm_cmpdf2.o) (__gedf2)
c:/st/stm32cubeide_1.0.2/stm32cubeide/plugins/com.st.stm32cube.ide.mcu.externaltools.gnu-tools-for-stm32.7-2018-q2-update.win32_1.0.0.201904181610/tools/bin/../lib/gcc/arm-none-eabi/7.3.1/thumb/v6-m\libgcc.a(ledf2.o)
                              c:/st/stm32cubeide_1.0.2/stm32cubeide/plugins/com.st.stm32cube.ide.mcu.externaltools.gnu-tools-for-stm32.7-2018-q2-update.win32_1.0.0.201904181610/tools/bin/../lib/gcc/arm-none-eabi/7.3.1/thumb/v6-m\libgcc.a(_arm_cmpdf2.o) (__ledf2)
c:/st/stm32cubeide_1.0.2/stm32cubeide/plugins/com.st.stm32cube.ide.mcu.externaltools.gnu-tools-for-stm32.7-2018-q2-update.win32_1.0.0.201904181610/tools/bin/../lib/gcc/arm-none-eabi/7.3.1/thumb/v6-m\libgcc.a(muldf3.o)
                              UsrSrc/PID.o (__aeabi_dmul)
c:/st/stm32cubeide_1.0.2/stm32cubeide/plugins/com.st.stm32cube.ide.mcu.externaltools.gnu-tools-for-stm32.7-2018-q2-update.win32_1.0.0.201904181610/tools/bin/../lib/gcc/arm-none-eabi/7.3.1/thumb/v6-m\libgcc.a(subdf3.o)
                              UsrSrc/PID.o (__aeabi_dsub)
c:/st/stm32cubeide_1.0.2/stm32cubeide/plugins/com.st.stm32cube.ide.mcu.externaltools.gnu-tools-for-stm32.7-2018-q2-update.win32_1.0.0.201904181610/tools/bin/../lib/gcc/arm-none-eabi/7.3.1/thumb/v6-m\libgcc.a(fixdfsi.o)
                              c:/st/stm32cubeide_1.0.2/stm32cubeide/plugins/com.st.stm32cube.ide.mcu.externaltools.gnu-tools-for-stm32.7-2018-q2-update.win32_1.0.0.201904181610/tools/bin/../lib/gcc/arm-none-eabi/7.3.1/thumb/v6-m\libgcc.a(_fixunsdfsi.o) (__aeabi_d2iz)
c:/st/stm32cubeide_1.0.2/stm32cubeide/plugins/com.st.stm32cube.ide.mcu.externaltools.gnu-tools-for-stm32.7-2018-q2-update.win32_1.0.0.201904181610/tools/bin/../lib/gcc/arm-none-eabi/7.3.1/thumb/v6-m\libgcc.a(floatsidf.o)
                              UsrSrc/MotorDriver.o (__aeabi_i2d)
c:/st/stm32cubeide_1.0.2/stm32cubeide/plugins/com.st.stm32cube.ide.mcu.externaltools.gnu-tools-for-stm32.7-2018-q2-update.win32_1.0.0.201904181610/tools/bin/../lib/gcc/arm-none-eabi/7.3.1/thumb/v6-m\libgcc.a(floatunsidf.o)
                              UsrSrc/Servo.o (__aeabi_ui2d)
c:/st/stm32cubeide_1.0.2/stm32cubeide/plugins/com.st.stm32cube.ide.mcu.externaltools.gnu-tools-for-stm32.7-2018-q2-update.win32_1.0.0.201904181610/tools/bin/../lib/gcc/arm-none-eabi/7.3.1/thumb/v6-m\libgcc.a(_clzsi2.o)
                              c:/st/stm32cubeide_1.0.2/stm32cubeide/plugins/com.st.stm32cube.ide.mcu.externaltools.gnu-tools-for-stm32.7-2018-q2-update.win32_1.0.0.201904181610/tools/bin/../lib/gcc/arm-none-eabi/7.3.1/thumb/v6-m\libgcc.a(adddf3.o) (__clzsi2)

Allocating common symbols
Common symbol       size              file

errno               0x4               c:/st/stm32cubeide_1.0.2/stm32cubeide/plugins/com.st.stm32cube.ide.mcu.externaltools.gnu-tools-for-stm32.7-2018-q2-update.win32_1.0.0.201904181610/tools/bin/../lib/gcc/arm-none-eabi/7.3.1/../../../../arm-none-eabi/lib/thumb/v6-m\libc_nano.a(lib_a-reent.o)
pwmTimer            0x40              Core/Src/tim.o
pidTimer            0x40              Core/Src/tim.o
hcan                0x28              Core/Src/can.o
uwTick              0x4               Drivers/STM32F0xx_HAL_Driver/Src/stm32f0xx_hal.o
pFlash              0x20              Drivers/STM32F0xx_HAL_Driver/Src/stm32f0xx_hal_flash.o
adc_buffer          0x500             Core/Src/adc.o
hdma_adc            0x44              Core/Src/adc.o
hadc                0x40              Core/Src/adc.o

Discarded input sections

 .text          0x0000000000000000        0x0 c:/st/stm32cubeide_1.0.2/stm32cubeide/plugins/com.st.stm32cube.ide.mcu.externaltools.gnu-tools-for-stm32.7-2018-q2-update.win32_1.0.0.201904181610/tools/bin/../lib/gcc/arm-none-eabi/7.3.1/thumb/v6-m/crti.o
 .data          0x0000000000000000        0x0 c:/st/stm32cubeide_1.0.2/stm32cubeide/plugins/com.st.stm32cube.ide.mcu.externaltools.gnu-tools-for-stm32.7-2018-q2-update.win32_1.0.0.201904181610/tools/bin/../lib/gcc/arm-none-eabi/7.3.1/thumb/v6-m/crti.o
 .bss           0x0000000000000000        0x0 c:/st/stm32cubeide_1.0.2/stm32cubeide/plugins/com.st.stm32cube.ide.mcu.externaltools.gnu-tools-for-stm32.7-2018-q2-update.win32_1.0.0.201904181610/tools/bin/../lib/gcc/arm-none-eabi/7.3.1/thumb/v6-m/crti.o
 .data          0x0000000000000000        0x4 c:/st/stm32cubeide_1.0.2/stm32cubeide/plugins/com.st.stm32cube.ide.mcu.externaltools.gnu-tools-for-stm32.7-2018-q2-update.win32_1.0.0.201904181610/tools/bin/../lib/gcc/arm-none-eabi/7.3.1/thumb/v6-m/crtbegin.o
 .text          0x0000000000000000       0x78 c:/st/stm32cubeide_1.0.2/stm32cubeide/plugins/com.st.stm32cube.ide.mcu.externaltools.gnu-tools-for-stm32.7-2018-q2-update.win32_1.0.0.201904181610/tools/bin/../lib/gcc/arm-none-eabi/7.3.1/../../../../arm-none-eabi/lib/thumb/v6-m/crt0.o
 .data          0x0000000000000000        0x0 c:/st/stm32cubeide_1.0.2/stm32cubeide/plugins/com.st.stm32cube.ide.mcu.externaltools.gnu-tools-for-stm32.7-2018-q2-update.win32_1.0.0.201904181610/tools/bin/../lib/gcc/arm-none-eabi/7.3.1/../../../../arm-none-eabi/lib/thumb/v6-m/crt0.o
 .bss           0x0000000000000000        0x0 c:/st/stm32cubeide_1.0.2/stm32cubeide/plugins/com.st.stm32cube.ide.mcu.externaltools.gnu-tools-for-stm32.7-2018-q2-update.win32_1.0.0.201904181610/tools/bin/../lib/gcc/arm-none-eabi/7.3.1/../../../../arm-none-eabi/lib/thumb/v6-m/crt0.o
 .ARM.extab     0x0000000000000000        0x0 c:/st/stm32cubeide_1.0.2/stm32cubeide/plugins/com.st.stm32cube.ide.mcu.externaltools.gnu-tools-for-stm32.7-2018-q2-update.win32_1.0.0.201904181610/tools/bin/../lib/gcc/arm-none-eabi/7.3.1/../../../../arm-none-eabi/lib/thumb/v6-m/crt0.o
 .ARM.exidx     0x0000000000000000        0x8 c:/st/stm32cubeide_1.0.2/stm32cubeide/plugins/com.st.stm32cube.ide.mcu.externaltools.gnu-tools-for-stm32.7-2018-q2-update.win32_1.0.0.201904181610/tools/bin/../lib/gcc/arm-none-eabi/7.3.1/../../../../arm-none-eabi/lib/thumb/v6-m/crt0.o
 .ARM.attributes
                0x0000000000000000       0x1b c:/st/stm32cubeide_1.0.2/stm32cubeide/plugins/com.st.stm32cube.ide.mcu.externaltools.gnu-tools-for-stm32.7-2018-q2-update.win32_1.0.0.201904181610/tools/bin/../lib/gcc/arm-none-eabi/7.3.1/../../../../arm-none-eabi/lib/thumb/v6-m/crt0.o
 .group         0x0000000000000000        0xc Core/Src/adc.o
 .group         0x0000000000000000        0xc Core/Src/adc.o
 .group         0x0000000000000000        0xc Core/Src/adc.o
 .group         0x0000000000000000        0xc Core/Src/adc.o
 .group         0x0000000000000000        0xc Core/Src/adc.o
 .group         0x0000000000000000        0xc Core/Src/adc.o
 .group         0x0000000000000000        0xc Core/Src/adc.o
Memory Configuration

Name             Origin             Length             Attributes
RAM              0x0000000020000000 0x0000000000001800 xrw
FLASH            0x0000000008000000 0x0000000000008000 xr
*default*        0x0000000000000000 0xffffffffffffffff

Linker script and memory map

LOAD c:/st/stm32cubeide_1.0.2/stm32cubeide/plugins/com.st.stm32cube.ide.mcu.externaltools.gnu-tools-for-stm32.7-2018-q2-update.win32_1.0.0.201904181610/tools/bin/../lib/gcc/arm-none-eabi/7.3.1/thumb/v6-m/crti.o
LOAD c:/st/stm32cubeide_1.0.2/stm32cubeide/plugins/com.st.stm32cube.ide.mcu.externaltools.gnu-tools-for-stm32.7-2018-q2-update.win32_1.0.0.201904181610/tools/bin/../lib/gcc/arm-none-eabi/7.3.1/thumb/v6-m/crtbegin.o
LOAD c:/st/stm32cubeide_1.0.2/stm32cubeide/plugins/com.st.stm32cube.ide.mcu.externaltools.gnu-tools-for-stm32.7-2018-q2-update.win32_1.0.0.201904181610/tools/bin/../lib/gcc/arm-none-eabi/7.3.1/../../../../arm-none-eabi/lib/thumb/v6-m/crt0.o
LOAD Core/Src/adc.o
LOAD Core/Src/can.o
LOAD Core/Src/dma.o
LOAD Core/Src/gpio.o
LOAD Core/Src/main.o
LOAD Core/Src/stm32f0xx_hal_msp.o
LOAD Core/Src/stm32f0xx_it.o
LOAD Core/Src/syscalls.o
LOAD Core/Src/sysmem.o
LOAD Core/Src/system_stm32f0xx.o
LOAD Core/Src/tim.o
LOAD Core/Startup/startup_stm32f042g6ux.o
LOAD Drivers/STM32F0xx_HAL_Driver/Src/stm32f0xx_hal.o
LOAD Drivers/STM32F0xx_HAL_Driver/Src/stm32f0xx_hal_adc.o
LOAD Drivers/STM32F0xx_HAL_Driver/Src/stm32f0xx_hal_adc_ex.o
LOAD Drivers/STM32F0xx_HAL_Driver/Src/stm32f0xx_hal_can.o
LOAD Drivers/STM32F0xx_HAL_Driver/Src/stm32f0xx_hal_cortex.o
LOAD Drivers/STM32F0xx_HAL_Driver/Src/stm32f0xx_hal_dma.o
LOAD Drivers/STM32F0xx_HAL_Driver/Src/stm32f0xx_hal_exti.o
LOAD Drivers/STM32F0xx_HAL_Driver/Src/stm32f0xx_hal_flash.o
LOAD Drivers/STM32F0xx_HAL_Driver/Src/stm32f0xx_hal_flash_ex.o
LOAD Drivers/STM32F0xx_HAL_Driver/Src/stm32f0xx_hal_gpio.o
LOAD Drivers/STM32F0xx_HAL_Driver/Src/stm32f0xx_hal_i2c.o
LOAD Drivers/STM32F0xx_HAL_Driver/Src/stm32f0xx_hal_i2c_ex.o
LOAD Drivers/STM32F0xx_HAL_Driver/Src/stm32f0xx_hal_pwr.o
LOAD Drivers/STM32F0xx_HAL_Driver/Src/stm32f0xx_hal_pwr_ex.o
LOAD Drivers/STM32F0xx_HAL_Driver/Src/stm32f0xx_hal_rcc.o
LOAD Drivers/STM32F0xx_HAL_Driver/Src/stm32f0xx_hal_rcc_ex.o
LOAD Drivers/STM32F0xx_HAL_Driver/Src/stm32f0xx_hal_tim.o
LOAD Drivers/STM32F0xx_HAL_Driver/Src/stm32f0xx_hal_tim_ex.o
LOAD UsrSrc/MotorDriver.o
LOAD UsrSrc/MsgProcessor.o
LOAD UsrSrc/PID.o
LOAD UsrSrc/Program.o
LOAD UsrSrc/Sensors.o
LOAD UsrSrc/Servo.o
START GROUP
LOAD c:/st/stm32cubeide_1.0.2/stm32cubeide/plugins/com.st.stm32cube.ide.mcu.externaltools.gnu-tools-for-stm32.7-2018-q2-update.win32_1.0.0.201904181610/tools/bin/../lib/gcc/arm-none-eabi/7.3.1/../../../../arm-none-eabi/lib/thumb/v6-m\libstdc++_nano.a
LOAD c:/st/stm32cubeide_1.0.2/stm32cubeide/plugins/com.st.stm32cube.ide.mcu.externaltools.gnu-tools-for-stm32.7-2018-q2-update.win32_1.0.0.201904181610/tools/bin/../lib/gcc/arm-none-eabi/7.3.1/../../../../arm-none-eabi/lib/thumb/v6-m\libsupc++_nano.a
END GROUP
LOAD c:/st/stm32cubeide_1.0.2/stm32cubeide/plugins/com.st.stm32cube.ide.mcu.externaltools.gnu-tools-for-stm32.7-2018-q2-update.win32_1.0.0.201904181610/tools/bin/../lib/gcc/arm-none-eabi/7.3.1/../../../../arm-none-eabi/lib/thumb/v6-m\libstdc++_nano.a
LOAD c:/st/stm32cubeide_1.0.2/stm32cubeide/plugins/com.st.stm32cube.ide.mcu.externaltools.gnu-tools-for-stm32.7-2018-q2-update.win32_1.0.0.201904181610/tools/bin/../lib/gcc/arm-none-eabi/7.3.1/../../../../arm-none-eabi/lib/thumb/v6-m\libm.a
LOAD c:/st/stm32cubeide_1.0.2/stm32cubeide/plugins/com.st.stm32cube.ide.mcu.externaltools.gnu-tools-for-stm32.7-2018-q2-update.win32_1.0.0.201904181610/tools/bin/../lib/gcc/arm-none-eabi/7.3.1/../../../../arm-none-eabi/lib/thumb/v6-m\libc_nano.a
START GROUP
LOAD c:/st/stm32cubeide_1.0.2/stm32cubeide/plugins/com.st.stm32cube.ide.mcu.externaltools.gnu-tools-for-stm32.7-2018-q2-update.win32_1.0.0.201904181610/tools/bin/../lib/gcc/arm-none-eabi/7.3.1/thumb/v6-m\libgcc.a
LOAD c:/st/stm32cubeide_1.0.2/stm32cubeide/plugins/com.st.stm32cube.ide.mcu.externaltools.gnu-tools-for-stm32.7-2018-q2-update.win32_1.0.0.201904181610/tools/bin/../lib/gcc/arm-none-eabi/7.3.1/../../../../arm-none-eabi/lib/thumb/v6-m\libc_nano.a
END GROUP
START GROUP
LOAD c:/st/stm32cubeide_1.0.2/stm32cubeide/plugins/com.st.stm32cube.ide.mcu.externaltools.gnu-tools-for-stm32.7-2018-q2-update.win32_1.0.0.201904181610/tools/bin/../lib/gcc/arm-none-eabi/7.3.1/thumb/v6-m\libgcc.a
LOAD c:/st/stm32cubeide_1.0.2/stm32cubeide/plugins/com.st.stm32cube.ide.mcu.externaltools.gnu-tools-for-stm32.7-2018-q2-update.win32_1.0.0.201904181610/tools/bin/../lib/gcc/arm-none-eabi/7.3.1/../../../../arm-none-eabi/lib/thumb/v6-m\libc_nano.a
LOAD c:/st/stm32cubeide_1.0.2/stm32cubeide/plugins/com.st.stm32cube.ide.mcu.externaltools.gnu-tools-for-stm32.7-2018-q2-update.win32_1.0.0.201904181610/tools/bin/../lib/gcc/arm-none-eabi/7.3.1/../../../../arm-none-eabi/lib/thumb/v6-m\libnosys.a
END GROUP
START GROUP
LOAD c:/st/stm32cubeide_1.0.2/stm32cubeide/plugins/com.st.stm32cube.ide.mcu.externaltools.gnu-tools-for-stm32.7-2018-q2-update.win32_1.0.0.201904181610/tools/bin/../lib/gcc/arm-none-eabi/7.3.1/thumb/v6-m\libgcc.a
LOAD c:/st/stm32cubeide_1.0.2/stm32cubeide/plugins/com.st.stm32cube.ide.mcu.externaltools.gnu-tools-for-stm32.7-2018-q2-update.win32_1.0.0.201904181610/tools/bin/../lib/gcc/arm-none-eabi/7.3.1/../../../../arm-none-eabi/lib/thumb/v6-m\libc_nano.a
LOAD c:/st/stm32cubeide_1.0.2/stm32cubeide/plugins/com.st.stm32cube.ide.mcu.externaltools.gnu-tools-for-stm32.7-2018-q2-update.win32_1.0.0.201904181610/tools/bin/../lib/gcc/arm-none-eabi/7.3.1/../../../../arm-none-eabi/lib/thumb/v6-m\libnosys.a
END GROUP
LOAD c:/st/stm32cubeide_1.0.2/stm32cubeide/plugins/com.st.stm32cube.ide.mcu.externaltools.gnu-tools-for-stm32.7-2018-q2-update.win32_1.0.0.201904181610/tools/bin/../lib/gcc/arm-none-eabi/7.3.1/thumb/v6-m/crtend.o
LOAD c:/st/stm32cubeide_1.0.2/stm32cubeide/plugins/com.st.stm32cube.ide.mcu.externaltools.gnu-tools-for-stm32.7-2018-q2-update.win32_1.0.0.201904181610/tools/bin/../lib/gcc/arm-none-eabi/7.3.1/thumb/v6-m/crtn.o
                0x0000000020001800                _estack = (ORIGIN (RAM) + LENGTH (RAM))
                0x0000000000000200                _Min_Heap_Size = 0x200
                0x0000000000000400                _Min_Stack_Size = 0x400

.isr_vector     0x0000000008000000       0xc0
                0x0000000008000000                . = ALIGN (0x4)
 *(.isr_vector)
 .isr_vector    0x0000000008000000       0xc0 Core/Startup/startup_stm32f042g6ux.o
                0x0000000008000000                g_pfnVectors
                0x00000000080000c0                . = ALIGN (0x4)

.text           0x00000000080000c0     0x5c3c
                0x00000000080000c0                . = ALIGN (0x4)
 *(.text)
 .text          0x00000000080000c0       0x48 c:/st/stm32cubeide_1.0.2/stm32cubeide/plugins/com.st.stm32cube.ide.mcu.externaltools.gnu-tools-for-stm32.7-2018-q2-update.win32_1.0.0.201904181610/tools/bin/../lib/gcc/arm-none-eabi/7.3.1/thumb/v6-m/crtbegin.o
 .text          0x0000000008000108      0x114 c:/st/stm32cubeide_1.0.2/stm32cubeide/plugins/com.st.stm32cube.ide.mcu.externaltools.gnu-tools-for-stm32.7-2018-q2-update.win32_1.0.0.201904181610/tools/bin/../lib/gcc/arm-none-eabi/7.3.1/thumb/v6-m\libgcc.a(_udivsi3.o)
                0x0000000008000108                __aeabi_uidiv
                0x0000000008000108                __udivsi3
                0x0000000008000214                __aeabi_uidivmod
 .text          0x000000000800021c        0x4 c:/st/stm32cubeide_1.0.2/stm32cubeide/plugins/com.st.stm32cube.ide.mcu.externaltools.gnu-tools-for-stm32.7-2018-q2-update.win32_1.0.0.201904181610/tools/bin/../lib/gcc/arm-none-eabi/7.3.1/thumb/v6-m\libgcc.a(_dvmd_tls.o)
                0x000000000800021c                __aeabi_idiv0
                0x000000000800021c                __aeabi_ldiv0
 .text          0x0000000008000220       0x7c c:/st/stm32cubeide_1.0.2/stm32cubeide/plugins/com.st.stm32cube.ide.mcu.externaltools.gnu-tools-for-stm32.7-2018-q2-update.win32_1.0.0.201904181610/tools/bin/../lib/gcc/arm-none-eabi/7.3.1/thumb/v6-m\libgcc.a(_arm_cmpdf2.o)
                0x0000000008000220                __aeabi_cdrcmple
                0x0000000008000230                __aeabi_cdcmple
                0x0000000008000230                __aeabi_cdcmpeq
                0x0000000008000240                __aeabi_dcmpeq
                0x000000000800024c                __aeabi_dcmplt
                0x0000000008000260                __aeabi_dcmple
                0x0000000008000274                __aeabi_dcmpgt
                0x0000000008000288                __aeabi_dcmpge
 .text          0x000000000800029c       0x3c c:/st/stm32cubeide_1.0.2/stm32cubeide/plugins/com.st.stm32cube.ide.mcu.externaltools.gnu-tools-for-stm32.7-2018-q2-update.win32_1.0.0.201904181610/tools/bin/../lib/gcc/arm-none-eabi/7.3.1/thumb/v6-m\libgcc.a(_fixunsdfsi.o)
                0x000000000800029c                __aeabi_d2uiz
                0x000000000800029c                __fixunsdfsi
 .text          0x00000000080002d8      0x638 c:/st/stm32cubeide_1.0.2/stm32cubeide/plugins/com.st.stm32cube.ide.mcu.externaltools.gnu-tools-for-stm32.7-2018-q2-update.win32_1.0.0.201904181610/tools/bin/../lib/gcc/arm-none-eabi/7.3.1/thumb/v6-m\libgcc.a(adddf3.o)
                0x00000000080002d8                __aeabi_dadd
 .text          0x0000000008000910      0x604 c:/st/stm32cubeide_1.0.2/stm32cubeide/plugins/com.st.stm32cube.ide.mcu.externaltools.gnu-tools-for-stm32.7-2018-q2-update.win32_1.0.0.201904181610/tools/bin/../lib/gcc/arm-none-eabi/7.3.1/thumb/v6-m\libgcc.a(divdf3.o)
                0x0000000008000910                __aeabi_ddiv
 .text          0x0000000008000f14       0x78 c:/st/stm32cubeide_1.0.2/stm32cubeide/plugins/com.st.stm32cube.ide.mcu.externaltools.gnu-tools-for-stm32.7-2018-q2-update.win32_1.0.0.201904181610/tools/bin/../lib/gcc/arm-none-eabi/7.3.1/thumb/v6-m\libgcc.a(eqdf2.o)
                0x0000000008000f14                __nedf2
                0x0000000008000f14                __eqdf2
 .text          0x0000000008000f8c       0xc8 c:/st/stm32cubeide_1.0.2/stm32cubeide/plugins/com.st.stm32cube.ide.mcu.externaltools.gnu-tools-for-stm32.7-2018-q2-update.win32_1.0.0.201904181610/tools/bin/../lib/gcc/arm-none-eabi/7.3.1/thumb/v6-m\libgcc.a(gedf2.o)
                0x0000000008000f8c                __gedf2
                0x0000000008000f8c                __gtdf2
 .text          0x0000000008001054       0xd0 c:/st/stm32cubeide_1.0.2/stm32cubeide/plugins/com.st.stm32cube.ide.mcu.externaltools.gnu-tools-for-stm32.7-2018-q2-update.win32_1.0.0.201904181610/tools/bin/../lib/gcc/arm-none-eabi/7.3.1/thumb/v6-m\libgcc.a(ledf2.o)
                0x0000000008001054                __ledf2
                0x0000000008001054                __ltdf2
 .text          0x0000000008001124      0x4e4 c:/st/stm32cubeide_1.0.2/stm32cubeide/plugins/com.st.stm32cube.ide.mcu.externaltools.gnu-tools-for-stm32.7-2018-q2-update.win32_1.0.0.201904181610/tools/bin/../lib/gcc/arm-none-eabi/7.3.1/thumb/v6-m\libgcc.a(muldf3.o)
                0x0000000008001124                __aeabi_dmul
 .text          0x0000000008001608      0x690 c:/st/stm32cubeide_1.0.2/stm32cubeide/plugins/com.st.stm32cube.ide.mcu.externaltools.gnu-tools-for-stm32.7-2018-q2-update.win32_1.0.0.201904181610/tools/bin/../lib/gcc/arm-none-eabi/7.3.1/thumb/v6-m\libgcc.a(subdf3.o)
                0x0000000008001608                __aeabi_dsub
 .text          0x0000000008001c98       0x6c c:/st/stm32cubeide_1.0.2/stm32cubeide/plugins/com.st.stm32cube.ide.mcu.externaltools.gnu-tools-for-stm32.7-2018-q2-update.win32_1.0.0.201904181610/tools/bin/../lib/gcc/arm-none-eabi/7.3.1/thumb/v6-m\libgcc.a(fixdfsi.o)
                0x0000000008001c98                __aeabi_d2iz
 .text          0x0000000008001d04       0x74 c:/st/stm32cubeide_1.0.2/stm32cubeide/plugins/com.st.stm32cube.ide.mcu.externaltools.gnu-tools-for-stm32.7-2018-q2-update.win32_1.0.0.201904181610/tools/bin/../lib/gcc/arm-none-eabi/7.3.1/thumb/v6-m\libgcc.a(floatsidf.o)
                0x0000000008001d04                __aeabi_i2d
 .text          0x0000000008001d78       0x64 c:/st/stm32cubeide_1.0.2/stm32cubeide/plugins/com.st.stm32cube.ide.mcu.externaltools.gnu-tools-for-stm32.7-2018-q2-update.win32_1.0.0.201904181610/tools/bin/../lib/gcc/arm-none-eabi/7.3.1/thumb/v6-m\libgcc.a(floatunsidf.o)
                0x0000000008001d78                __aeabi_ui2d
 .text          0x0000000008001ddc       0x3c c:/st/stm32cubeide_1.0.2/stm32cubeide/plugins/com.st.stm32cube.ide.mcu.externaltools.gnu-tools-for-stm32.7-2018-q2-update.win32_1.0.0.201904181610/tools/bin/../lib/gcc/arm-none-eabi/7.3.1/thumb/v6-m\libgcc.a(_clzsi2.o)
                0x0000000008001ddc                __clzsi2
 *(.text*)
 .text.StartADC
                0x0000000008001e18       0x2c Core/Src/adc.o
                0x0000000008001e18                StartADC
 .text.HAL_ADC_ConvCpltCallback
                0x0000000008001e44       0x20 Core/Src/adc.o
                0x0000000008001e44                HAL_ADC_ConvCpltCallback
 .text.HAL_ADC_ConvHalfCpltCallback
                0x0000000008001e64       0x1c Core/Src/adc.o
                0x0000000008001e64                HAL_ADC_ConvHalfCpltCallback
 .text.CalculateAverage
                0x0000000008001e80       0xdc Core/Src/adc.o
                0x0000000008001e80                CalculateAverage
 .text.MX_ADC_Init
                0x0000000008001f5c      0x11c Core/Src/adc.o
                0x0000000008001f5c                MX_ADC_Init
 .text.HAL_ADC_MspInit
                0x0000000008002078       0xe4 Core/Src/adc.o
                0x0000000008002078                HAL_ADC_MspInit
 .text.MX_CAN_Init
                0x000000000800215c       0x70 Core/Src/can.o
                0x000000000800215c                MX_CAN_Init
 .text.HAL_CAN_MspInit
                0x00000000080021cc       0x9c Core/Src/can.o
                0x00000000080021cc                HAL_CAN_MspInit
 .text.MX_DMA_Init
                0x0000000008002268       0x3c Core/Src/dma.o
                0x0000000008002268                MX_DMA_Init
 .text.MX_GPIO_Init
                0x00000000080022a4       0xd0 Core/Src/gpio.o
                0x00000000080022a4                MX_GPIO_Init
 .text.StartHardWare
                0x0000000008002374        0xe Core/Src/main.o
                0x0000000008002374                StartHardWare
 .text.main     0x0000000008002382       0x2a Core/Src/main.o
                0x0000000008002382                main
 .text.SystemClock_Config
                0x00000000080023ac       0x9c Core/Src/main.o
                0x00000000080023ac                SystemClock_Config
 .text.Error_Handler
                0x0000000008002448        0xa Core/Src/main.o
                0x0000000008002448                Error_Handler
 *fill*         0x0000000008002452        0x2 
 .text.HAL_MspInit
                0x0000000008002454       0x58 Core/Src/stm32f0xx_hal_msp.o
                0x0000000008002454                HAL_MspInit
 .text.NMI_Handler
                0x00000000080024ac        0xa Core/Src/stm32f0xx_it.o
                0x00000000080024ac                NMI_Handler
 .text.HardFault_Handler
                0x00000000080024b6        0x6 Core/Src/stm32f0xx_it.o
                0x00000000080024b6                HardFault_Handler
 .text.SVC_Handler
                0x00000000080024bc        0xa Core/Src/stm32f0xx_it.o
                0x00000000080024bc                SVC_Handler
 .text.PendSV_Handler
                0x00000000080024c6        0xa Core/Src/stm32f0xx_it.o
                0x00000000080024c6                PendSV_Handler
 .text.SysTick_Handler
                0x00000000080024d0        0xe Core/Src/stm32f0xx_it.o
                0x00000000080024d0                SysTick_Handler
 *fill*         0x00000000080024de        0x2 
 .text.DMA1_Channel1_IRQHandler
                0x00000000080024e0       0x18 Core/Src/stm32f0xx_it.o
                0x00000000080024e0                DMA1_Channel1_IRQHandler
 .text.SystemInit
                0x00000000080024f8        0xa Core/Src/system_stm32f0xx.o
                0x00000000080024f8                SystemInit
 *fill*         0x0000000008002502        0x2 
 .text.MX_TIM2_Init
                0x0000000008002504       0xa8 Core/Src/tim.o
                0x0000000008002504                MX_TIM2_Init
 .text.MX_TIM3_Init
                0x00000000080025ac       0xd4 Core/Src/tim.o
                0x00000000080025ac                MX_TIM3_Init
 .text.HAL_TIM_Base_MspInit
                0x0000000008002680       0x38 Core/Src/tim.o
                0x0000000008002680                HAL_TIM_Base_MspInit
 .text.HAL_TIM_PWM_MspInit
                0x00000000080026b8       0x3c Core/Src/tim.o
                0x00000000080026b8                HAL_TIM_PWM_MspInit
 .text.HAL_TIM_MspPostInit
                0x00000000080026f4       0x80 Core/Src/tim.o
                0x00000000080026f4                HAL_TIM_MspPostInit
 .text.Reset_Handler
                0x0000000008002774       0x80 Core/Startup/startup_stm32f042g6ux.o
                0x0000000008002774                Reset_Handler
 .text.Default_Handler
                0x00000000080027f4        0x2 Core/Startup/startup_stm32f042g6ux.o
                0x00000000080027f4                TIM1_CC_IRQHandler
                0x00000000080027f4                TSC_IRQHandler
                0x00000000080027f4                I2C1_IRQHandler
                0x00000000080027f4                RCC_CRS_IRQHandler
                0x00000000080027f4                SPI1_IRQHandler
                0x00000000080027f4                EXTI2_3_IRQHandler
                0x00000000080027f4                ADC1_IRQHandler
                0x00000000080027f4                TIM17_IRQHandler
                0x00000000080027f4                CEC_CAN_IRQHandler
                0x00000000080027f4                RTC_IRQHandler
                0x00000000080027f4                PVD_VDDIO2_IRQHandler
                0x00000000080027f4                TIM16_IRQHandler
                0x00000000080027f4                TIM3_IRQHandler
                0x00000000080027f4                EXTI4_15_IRQHandler
                0x00000000080027f4                Default_Handler
                0x00000000080027f4                TIM14_IRQHandler
                0x00000000080027f4                DMA1_Channel4_5_IRQHandler
                0x00000000080027f4                EXTI0_1_IRQHandler
                0x00000000080027f4                USB_IRQHandler
                0x00000000080027f4                SPI2_IRQHandler
                0x00000000080027f4                WWDG_IRQHandler
                0x00000000080027f4                TIM2_IRQHandler
                0x00000000080027f4                DMA1_Channel2_3_IRQHandler
                0x00000000080027f4                USART2_IRQHandler
                0x00000000080027f4                FLASH_IRQHandler
                0x00000000080027f4                USART1_IRQHandler
                0x00000000080027f4                TIM1_BRK_UP_TRG_COM_IRQHandler
 *fill*         0x00000000080027f6        0x2 
 .text.HAL_Init
                0x00000000080027f8       0x28 Drivers/STM32F0xx_HAL_Driver/Src/stm32f0xx_hal.o
                0x00000000080027f8                HAL_Init
 .text.HAL_InitTick
                0x0000000008002820       0x68 Drivers/STM32F0xx_HAL_Driver/Src/stm32f0xx_hal.o
                0x0000000008002820                HAL_InitTick
 .text.HAL_IncTick
                0x0000000008002888       0x24 Drivers/STM32F0xx_HAL_Driver/Src/stm32f0xx_hal.o
                0x0000000008002888                HAL_IncTick
 .text.HAL_GetTick
                0x00000000080028ac       0x14 Drivers/STM32F0xx_HAL_Driver/Src/stm32f0xx_hal.o
                0x00000000080028ac                HAL_GetTick
 .text.HAL_ADC_Init
                0x00000000080028c0      0x280 Drivers/STM32F0xx_HAL_Driver/Src/stm32f0xx_hal_adc.o
                0x00000000080028c0                HAL_ADC_Init
 .text.HAL_ADC_Start_DMA
                0x0000000008002b40      0x104 Drivers/STM32F0xx_HAL_Driver/Src/stm32f0xx_hal_adc.o
                0x0000000008002b40                HAL_ADC_Start_DMA
 .text.HAL_ADC_ErrorCallback
                0x0000000008002c44       0x10 Drivers/STM32F0xx_HAL_Driver/Src/stm32f0xx_hal_adc.o
                0x0000000008002c44                HAL_ADC_ErrorCallback
 .text.HAL_ADC_ConfigChannel
                0x0000000008002c54      0x21c Drivers/STM32F0xx_HAL_Driver/Src/stm32f0xx_hal_adc.o
                0x0000000008002c54                HAL_ADC_ConfigChannel
 .text.ADC_Enable
                0x0000000008002e70       0xf8 Drivers/STM32F0xx_HAL_Driver/Src/stm32f0xx_hal_adc.o
 .text.ADC_DMAConvCplt
                0x0000000008002f68       0xb4 Drivers/STM32F0xx_HAL_Driver/Src/stm32f0xx_hal_adc.o
 .text.ADC_DMAHalfConvCplt
                0x000000000800301c       0x1e Drivers/STM32F0xx_HAL_Driver/Src/stm32f0xx_hal_adc.o
 .text.ADC_DMAError
                0x000000000800303a       0x36 Drivers/STM32F0xx_HAL_Driver/Src/stm32f0xx_hal_adc.o
 .text.HAL_CAN_Init
                0x0000000008003070      0x1fc Drivers/STM32F0xx_HAL_Driver/Src/stm32f0xx_hal_can.o
                0x0000000008003070                HAL_CAN_Init
 .text.__NVIC_EnableIRQ
                0x000000000800326c       0x34 Drivers/STM32F0xx_HAL_Driver/Src/stm32f0xx_hal_cortex.o
 .text.__NVIC_SetPriority
                0x00000000080032a0       0xdc Drivers/STM32F0xx_HAL_Driver/Src/stm32f0xx_hal_cortex.o
 .text.SysTick_Config
                0x000000000800337c       0x48 Drivers/STM32F0xx_HAL_Driver/Src/stm32f0xx_hal_cortex.o
 .text.HAL_NVIC_SetPriority
                0x00000000080033c4       0x2a Drivers/STM32F0xx_HAL_Driver/Src/stm32f0xx_hal_cortex.o
                0x00000000080033c4                HAL_NVIC_SetPriority
 .text.HAL_NVIC_EnableIRQ
                0x00000000080033ee       0x20 Drivers/STM32F0xx_HAL_Driver/Src/stm32f0xx_hal_cortex.o
                0x00000000080033ee                HAL_NVIC_EnableIRQ
 .text.HAL_SYSTICK_Config
                0x000000000800340e       0x1a Drivers/STM32F0xx_HAL_Driver/Src/stm32f0xx_hal_cortex.o
                0x000000000800340e                HAL_SYSTICK_Config
 .text.HAL_DMA_Init
                0x0000000008003428       0x90 Drivers/STM32F0xx_HAL_Driver/Src/stm32f0xx_hal_dma.o
                0x0000000008003428                HAL_DMA_Init
 .text.HAL_DMA_Start_IT
                0x00000000080034b8       0xcc Drivers/STM32F0xx_HAL_Driver/Src/stm32f0xx_hal_dma.o
                0x00000000080034b8                HAL_DMA_Start_IT
 .text.HAL_DMA_IRQHandler
                0x0000000008003584      0x144 Drivers/STM32F0xx_HAL_Driver/Src/stm32f0xx_hal_dma.o
                0x0000000008003584                HAL_DMA_IRQHandler
 .text.DMA_SetConfig
                0x00000000080036c8       0x58 Drivers/STM32F0xx_HAL_Driver/Src/stm32f0xx_hal_dma.o
 .text.DMA_CalcBaseAndBitshift
                0x0000000008003720       0x38 Drivers/STM32F0xx_HAL_Driver/Src/stm32f0xx_hal_dma.o
 .text.HAL_GPIO_Init
                0x0000000008003758      0x2d0 Drivers/STM32F0xx_HAL_Driver/Src/stm32f0xx_hal_gpio.o
                0x0000000008003758                HAL_GPIO_Init
 .text.HAL_GPIO_ReadPin
                0x0000000008003a28       0x3a Drivers/STM32F0xx_HAL_Driver/Src/stm32f0xx_hal_gpio.o
                0x0000000008003a28                HAL_GPIO_ReadPin
 .text.HAL_GPIO_WritePin
                0x0000000008003a62       0x3a Drivers/STM32F0xx_HAL_Driver/Src/stm32f0xx_hal_gpio.o
                0x0000000008003a62                HAL_GPIO_WritePin
 .text.HAL_RCC_OscConfig
                0x0000000008003a9c      0x70c Drivers/STM32F0xx_HAL_Driver/Src/stm32f0xx_hal_rcc.o
                0x0000000008003a9c                HAL_RCC_OscConfig
 .text.HAL_RCC_ClockConfig
                0x00000000080041a8      0x1b4 Drivers/STM32F0xx_HAL_Driver/Src/stm32f0xx_hal_rcc.o
                0x00000000080041a8                HAL_RCC_ClockConfig
 .text.HAL_RCC_GetSysClockFreq
                0x000000000800435c      0x100 Drivers/STM32F0xx_HAL_Driver/Src/stm32f0xx_hal_rcc.o
                0x000000000800435c                HAL_RCC_GetSysClockFreq
 .text.HAL_TIM_Base_Init
                0x000000000800445c       0x58 Drivers/STM32F0xx_HAL_Driver/Src/stm32f0xx_hal_tim.o
                0x000000000800445c                HAL_TIM_Base_Init
 .text.HAL_TIM_Base_Start
                0x00000000080044b4       0x44 Drivers/STM32F0xx_HAL_Driver/Src/stm32f0xx_hal_tim.o
                0x00000000080044b4                HAL_TIM_Base_Start
 .text.HAL_TIM_PWM_Init
                0x00000000080044f8       0x58 Drivers/STM32F0xx_HAL_Driver/Src/stm32f0xx_hal_tim.o
                0x00000000080044f8                HAL_TIM_PWM_Init
 .text.HAL_TIM_PWM_Start
                0x0000000008004550       0x8c Drivers/STM32F0xx_HAL_Driver/Src/stm32f0xx_hal_tim.o
                0x0000000008004550                HAL_TIM_PWM_Start
 .text.HAL_TIM_PWM_ConfigChannel
                0x00000000080045dc      0x170 Drivers/STM32F0xx_HAL_Driver/Src/stm32f0xx_hal_tim.o
                0x00000000080045dc                HAL_TIM_PWM_ConfigChannel
 .text.HAL_TIM_ConfigClockSource
                0x000000000800474c      0x17c Drivers/STM32F0xx_HAL_Driver/Src/stm32f0xx_hal_tim.o
                0x000000000800474c                HAL_TIM_ConfigClockSource
 .text.TIM_Base_SetConfig
                0x00000000080048c8       0xec Drivers/STM32F0xx_HAL_Driver/Src/stm32f0xx_hal_tim.o
                0x00000000080048c8                TIM_Base_SetConfig
 .text.TIM_OC1_SetConfig
                0x00000000080049b4       0xfc Drivers/STM32F0xx_HAL_Driver/Src/stm32f0xx_hal_tim.o
 .text.TIM_OC2_SetConfig
                0x0000000008004ab0       0xfc Drivers/STM32F0xx_HAL_Driver/Src/stm32f0xx_hal_tim.o
                0x0000000008004ab0                TIM_OC2_SetConfig
 .text.TIM_OC3_SetConfig
                0x0000000008004bac      0x100 Drivers/STM32F0xx_HAL_Driver/Src/stm32f0xx_hal_tim.o
 .text.TIM_OC4_SetConfig
                0x0000000008004cac       0xc8 Drivers/STM32F0xx_HAL_Driver/Src/stm32f0xx_hal_tim.o
 .text.TIM_TI1_ConfigInputStage
                0x0000000008004d74       0x5c Drivers/STM32F0xx_HAL_Driver/Src/stm32f0xx_hal_tim.o
 .text.TIM_TI2_ConfigInputStage
                0x0000000008004dd0       0x64 Drivers/STM32F0xx_HAL_Driver/Src/stm32f0xx_hal_tim.o
 .text.TIM_ITRx_SetConfig
                0x0000000008004e34       0x32 Drivers/STM32F0xx_HAL_Driver/Src/stm32f0xx_hal_tim.o
 *fill*         0x0000000008004e66        0x2 
 .text.TIM_ETR_SetConfig
                0x0000000008004e68       0x40 Drivers/STM32F0xx_HAL_Driver/Src/stm32f0xx_hal_tim.o
                0x0000000008004e68                TIM_ETR_SetConfig
 .text.TIM_CCxChannelCmd
                0x0000000008004ea8       0x46 Drivers/STM32F0xx_HAL_Driver/Src/stm32f0xx_hal_tim.o
                0x0000000008004ea8                TIM_CCxChannelCmd
 *fill*         0x0000000008004eee        0x2 
 .text.HAL_TIMEx_MasterConfigSynchronization
                0x0000000008004ef0       0xb0 Drivers/STM32F0xx_HAL_Driver/Src/stm32f0xx_hal_tim_ex.o
                0x0000000008004ef0                HAL_TIMEx_MasterConfigSynchronization
 .text._ZN11MotorDriverC2Ev
                0x0000000008004fa0       0x3c UsrSrc/MotorDriver.o
                0x0000000008004fa0                MotorDriver::MotorDriver()
                0x0000000008004fa0                MotorDriver::MotorDriver()
 .text._ZN11MotorDriver6WakeUpEv
                0x0000000008004fdc       0x30 UsrSrc/MotorDriver.o
                0x0000000008004fdc                MotorDriver::WakeUp()
 .text._ZN11MotorDriver9TurnRightEh
                0x000000000800500c       0x64 UsrSrc/MotorDriver.o
                0x000000000800500c                MotorDriver::TurnRight(unsigned char)
 .text._ZN11MotorDriver8TurnLeftEh
                0x0000000008005070       0x64 UsrSrc/MotorDriver.o
                0x0000000008005070                MotorDriver::TurnLeft(unsigned char)
 .text._ZN11MotorDriver4StopEh
                0x00000000080050d4       0x8c UsrSrc/MotorDriver.o
                0x00000000080050d4                MotorDriver::Stop(unsigned char)
 .text._ZNSt14numeric_limitsIdE3maxEv
                0x0000000008005160       0x18 UsrSrc/PID.o
                0x0000000008005160                std::numeric_limits<double>::max()
 .text._ZN3PIDC2Eddd
                0x0000000008005178       0x5a UsrSrc/PID.o
                0x0000000008005178                PID::PID(double, double, double)
                0x0000000008005178                PID::PID(double, double, double)
 .text._ZN3PID9CalculateEddd
                0x00000000080051d2      0x13e UsrSrc/PID.o
                0x00000000080051d2                PID::Calculate(double, double, double)
 .text._ZN3PID6Calc_PEd
                0x0000000008005310       0x28 UsrSrc/PID.o
                0x0000000008005310                PID::Calc_P(double)
 .text._ZN3PID6Calc_IEd
                0x0000000008005338       0xa0 UsrSrc/PID.o
                0x0000000008005338                PID::Calc_I(double)
 .text._ZN3PID6Calc_DEd
                0x00000000080053d8       0x66 UsrSrc/PID.o
                0x00000000080053d8                PID::Calc_D(double)
 .text._ZN3PID4TuneEddd
                0x000000000800543e       0x3c UsrSrc/PID.o
                0x000000000800543e                PID::Tune(double, double, double)
 *fill*         0x000000000800547a        0x2 
 .text._ZN5Servo8SetAngleEt
                0x000000000800547c       0x30 UsrSrc/Program.o
                0x000000000800547c                Servo::SetAngle(unsigned short)
 .text._ZN5Servo10TunePosPIDEddd
                0x00000000080054ac       0x36 UsrSrc/Program.o
                0x00000000080054ac                Servo::TunePosPID(double, double, double)
 .text._ZN5Servo10TuneVelPIDEddd
                0x00000000080054e2       0x36 UsrSrc/Program.o
                0x00000000080054e2                Servo::TuneVelPID(double, double, double)
 .text._ZN5Servo10TuneFilterEd
                0x0000000008005518       0x28 UsrSrc/Program.o
                0x0000000008005518                Servo::TuneFilter(double)
 .text.Program  0x0000000008005540      0x11c UsrSrc/Program.o
                0x0000000008005540                Program
 .text._ZN6FilterItE8SetAlphaEd
                0x000000000800565c       0x60 UsrSrc/Program.o
                0x000000000800565c                Filter<unsigned short>::SetAlpha(double)
 .text._ZN7SensorsC2Ev
                0x00000000080056bc       0x68 UsrSrc/Sensors.o
                0x00000000080056bc                Sensors::Sensors()
                0x00000000080056bc                Sensors::Sensors()
 .text._ZSt3absd
                0x0000000008005724       0x1e UsrSrc/Servo.o
                0x0000000008005724                std::abs(double)
 .text._ZN3PID9SetMinMaxEdd
                0x0000000008005742       0x38 UsrSrc/Servo.o
                0x0000000008005742                PID::SetMinMax(double, double)
 *fill*         0x000000000800577a        0x2 
 .text._ZN5ServoC2Ev
                0x000000000800577c       0xec UsrSrc/Servo.o
                0x000000000800577c                Servo::Servo()
                0x000000000800577c                Servo::Servo()
 .text._ZN5Servo6UpdateEv
                0x0000000008005868      0x2d4 UsrSrc/Servo.o
                0x0000000008005868                Servo::Update()
 .text._ZN5Servo4StopEv
                0x0000000008005b3c       0x1c UsrSrc/Servo.o
                0x0000000008005b3c                Servo::Stop()
 .text._ZN6FilterItEC2Ed
                0x0000000008005b58       0x2c UsrSrc/Servo.o
                0x0000000008005b58                Filter<unsigned short>::Filter(double)
                0x0000000008005b58                Filter<unsigned short>::Filter(double)
 .text._ZN6FilterItE9CalculateEt
                0x0000000008005b84       0xa0 UsrSrc/Servo.o
                0x0000000008005b84                Filter<unsigned short>::Calculate(unsigned short)
 .text._ZSt8copysignItdEN9__gnu_cxx11__promote_2IT_T0_NS0_9__promoteIS2_XsrSt12__is_integerIS2_E7__valueEE6__typeENS4_IS3_XsrS5_IS3_E7__valueEE6__typeEE6__typeES2_S3_
                0x0000000008005c24       0x38 UsrSrc/Servo.o
                0x0000000008005c24                __gnu_cxx::__promote_2<unsigned short, double, __gnu_cxx::__promote<unsigned short, std::__is_integer<unsigned short>::__value>::__type, __gnu_cxx::__promote<double, std::__is_integer<double>::__value>::__type>::__type std::copysign<unsigned short, double>(unsigned short, double)
 .text._ZN6FilterItE4InitEt
                0x0000000008005c5c       0x1e UsrSrc/Servo.o
                0x0000000008005c5c                Filter<unsigned short>::Init(unsigned short)
 .text.copysign
                0x0000000008005c7a       0x10 c:/st/stm32cubeide_1.0.2/stm32cubeide/plugins/com.st.stm32cube.ide.mcu.externaltools.gnu-tools-for-stm32.7-2018-q2-update.win32_1.0.0.201904181610/tools/bin/../lib/gcc/arm-none-eabi/7.3.1/../../../../arm-none-eabi/lib/thumb/v6-m\libm.a(lib_a-s_copysign.o)
                0x0000000008005c7a                copysign
 *fill*         0x0000000008005c8a        0x2 
 .text.__libc_init_array
                0x0000000008005c8c       0x48 c:/st/stm32cubeide_1.0.2/stm32cubeide/plugins/com.st.stm32cube.ide.mcu.externaltools.gnu-tools-for-stm32.7-2018-q2-update.win32_1.0.0.201904181610/tools/bin/../lib/gcc/arm-none-eabi/7.3.1/../../../../arm-none-eabi/lib/thumb/v6-m\libc_nano.a(lib_a-init.o)
                0x0000000008005c8c                __libc_init_array
 .text.memset   0x0000000008005cd4       0x10 c:/st/stm32cubeide_1.0.2/stm32cubeide/plugins/com.st.stm32cube.ide.mcu.externaltools.gnu-tools-for-stm32.7-2018-q2-update.win32_1.0.0.201904181610/tools/bin/../lib/gcc/arm-none-eabi/7.3.1/../../../../arm-none-eabi/lib/thumb/v6-m\libc_nano.a(lib_a-memset.o)
                0x0000000008005cd4                memset
 *(.glue_7)
 .glue_7        0x0000000008005ce4        0x0 linker stubs
 *(.glue_7t)
 .glue_7t       0x0000000008005ce4        0x0 linker stubs
 *(.eh_frame)
 .eh_frame      0x0000000008005ce4        0x0 c:/st/stm32cubeide_1.0.2/stm32cubeide/plugins/com.st.stm32cube.ide.mcu.externaltools.gnu-tools-for-stm32.7-2018-q2-update.win32_1.0.0.201904181610/tools/bin/../lib/gcc/arm-none-eabi/7.3.1/thumb/v6-m/crtbegin.o
 *(.init)
 .init          0x0000000008005ce4        0x4 c:/st/stm32cubeide_1.0.2/stm32cubeide/plugins/com.st.stm32cube.ide.mcu.externaltools.gnu-tools-for-stm32.7-2018-q2-update.win32_1.0.0.201904181610/tools/bin/../lib/gcc/arm-none-eabi/7.3.1/thumb/v6-m/crti.o
                0x0000000008005ce4                _init
 .init          0x0000000008005ce8        0x8 c:/st/stm32cubeide_1.0.2/stm32cubeide/plugins/com.st.stm32cube.ide.mcu.externaltools.gnu-tools-for-stm32.7-2018-q2-update.win32_1.0.0.201904181610/tools/bin/../lib/gcc/arm-none-eabi/7.3.1/thumb/v6-m/crtn.o
 *(.fini)
 .fini          0x0000000008005cf0        0x4 c:/st/stm32cubeide_1.0.2/stm32cubeide/plugins/com.st.stm32cube.ide.mcu.externaltools.gnu-tools-for-stm32.7-2018-q2-update.win32_1.0.0.201904181610/tools/bin/../lib/gcc/arm-none-eabi/7.3.1/thumb/v6-m/crti.o
                0x0000000008005cf0                _fini
 .fini          0x0000000008005cf4        0x8 c:/st/stm32cubeide_1.0.2/stm32cubeide/plugins/com.st.stm32cube.ide.mcu.externaltools.gnu-tools-for-stm32.7-2018-q2-update.win32_1.0.0.201904181610/tools/bin/../lib/gcc/arm-none-eabi/7.3.1/thumb/v6-m/crtn.o
                0x0000000008005cfc                . = ALIGN (0x4)
                0x0000000008005cfc                _etext = .

.vfp11_veneer   0x0000000008005cfc        0x0
 .vfp11_veneer  0x0000000008005cfc        0x0 linker stubs

.v4_bx          0x0000000008005cfc        0x0
 .v4_bx         0x0000000008005cfc        0x0 linker stubs

.iplt           0x0000000008005cfc        0x0
 .iplt          0x0000000008005cfc        0x0 c:/st/stm32cubeide_1.0.2/stm32cubeide/plugins/com.st.stm32cube.ide.mcu.externaltools.gnu-tools-for-stm32.7-2018-q2-update.win32_1.0.0.201904181610/tools/bin/../lib/gcc/arm-none-eabi/7.3.1/thumb/v6-m/crtbegin.o

.rodata         0x0000000008005cfc       0xb0
                0x0000000008005cfc                . = ALIGN (0x4)
 *(.rodata)
 .rodata        0x0000000008005cfc       0x20 Drivers/STM32F0xx_HAL_Driver/Src/stm32f0xx_hal_rcc.o
 .rodata        0x0000000008005d1c       0x40 c:/st/stm32cubeide_1.0.2/stm32cubeide/plugins/com.st.stm32cube.ide.mcu.externaltools.gnu-tools-for-stm32.7-2018-q2-update.win32_1.0.0.201904181610/tools/bin/../lib/gcc/arm-none-eabi/7.3.1/thumb/v6-m\libgcc.a(divdf3.o)
 .rodata        0x0000000008005d5c       0x40 c:/st/stm32cubeide_1.0.2/stm32cubeide/plugins/com.st.stm32cube.ide.mcu.externaltools.gnu-tools-for-stm32.7-2018-q2-update.win32_1.0.0.201904181610/tools/bin/../lib/gcc/arm-none-eabi/7.3.1/thumb/v6-m\libgcc.a(muldf3.o)
 *(.rodata*)
 .rodata.AHBPrescTable
                0x0000000008005d9c       0x10 Core/Src/system_stm32f0xx.o
                0x0000000008005d9c                AHBPrescTable
                0x0000000008005dac                . = ALIGN (0x4)

.rel.dyn        0x0000000008005dac        0x0
 .rel.iplt      0x0000000008005dac        0x0 c:/st/stm32cubeide_1.0.2/stm32cubeide/plugins/com.st.stm32cube.ide.mcu.externaltools.gnu-tools-for-stm32.7-2018-q2-update.win32_1.0.0.201904181610/tools/bin/../lib/gcc/arm-none-eabi/7.3.1/thumb/v6-m/crtbegin.o

.ARM.extab      0x0000000008005dac        0x0
                0x0000000008005dac                . = ALIGN (0x4)
 *(.ARM.extab* .gnu.linkonce.armextab.*)
                0x0000000008005dac                . = ALIGN (0x4)

.ARM            0x0000000008005dac        0x0
                0x0000000008005dac                . = ALIGN (0x4)
                0x0000000008005dac                __exidx_start = .
 *(.ARM.exidx*)
                0x0000000008005dac                __exidx_end = .
                0x0000000008005dac                . = ALIGN (0x4)

.preinit_array  0x0000000008005dac        0x0
                0x0000000008005dac                . = ALIGN (0x4)
                0x0000000008005dac                PROVIDE (__preinit_array_start = .)
 *(.preinit_array*)
                0x0000000008005dac                PROVIDE (__preinit_array_end = .)
                0x0000000008005dac                . = ALIGN (0x4)

.init_array     0x0000000008005dac        0x4
                0x0000000008005dac                . = ALIGN (0x4)
                0x0000000008005dac                PROVIDE (__init_array_start = .)
 *(SORT_BY_NAME(.init_array.*))
 *(.init_array*)
 .init_array    0x0000000008005dac        0x4 c:/st/stm32cubeide_1.0.2/stm32cubeide/plugins/com.st.stm32cube.ide.mcu.externaltools.gnu-tools-for-stm32.7-2018-q2-update.win32_1.0.0.201904181610/tools/bin/../lib/gcc/arm-none-eabi/7.3.1/thumb/v6-m/crtbegin.o
                0x0000000008005db0                PROVIDE (__init_array_end = .)
                0x0000000008005db0                . = ALIGN (0x4)

.fini_array     0x0000000008005db0        0x4
                0x0000000008005db0                . = ALIGN (0x4)
                [!provide]                        PROVIDE (__fini_array_start = .)
 *(SORT_BY_NAME(.fini_array.*))
 *(.fini_array*)
 .fini_array    0x0000000008005db0        0x4 c:/st/stm32cubeide_1.0.2/stm32cubeide/plugins/com.st.stm32cube.ide.mcu.externaltools.gnu-tools-for-stm32.7-2018-q2-update.win32_1.0.0.201904181610/tools/bin/../lib/gcc/arm-none-eabi/7.3.1/thumb/v6-m/crtbegin.o
                [!provide]                        PROVIDE (__fini_array_end = .)
                0x0000000008005db4                . = ALIGN (0x4)
                0x0000000008005db4                _sidata = LOADADDR (.data)

.data           0x0000000020000000       0x24 load address 0x0000000008005db4
                0x0000000020000000                . = ALIGN (0x4)
                0x0000000020000000                _sdata = .
 *(.data)
 *(.data*)
 .data.SystemCoreClock
                0x0000000020000000        0x4 Core/Src/system_stm32f0xx.o
                0x0000000020000000                SystemCoreClock
 .data.uwTickPrio
                0x0000000020000004        0x4 Drivers/STM32F0xx_HAL_Driver/Src/stm32f0xx_hal.o
                0x0000000020000004                uwTickPrio
 .data.uwTickFreq
                0x0000000020000008        0x1 Drivers/STM32F0xx_HAL_Driver/Src/stm32f0xx_hal.o
                0x0000000020000008                uwTickFreq
 *fill*         0x0000000020000009        0x3 
 .data.motorState
                0x000000002000000c        0x4 UsrSrc/Program.o
                0x000000002000000c                motorState
 .data.pos_p    0x0000000020000010        0x8 UsrSrc/Program.o
                0x0000000020000010                pos_p
 .data.vel_p    0x0000000020000018        0x8 UsrSrc/Program.o
                0x0000000020000018                vel_p
 .data.setPoint
                0x0000000020000020        0x2 UsrSrc/Program.o
                0x0000000020000020                setPoint
                0x0000000020000024                . = ALIGN (0x4)
 *fill*         0x0000000020000022        0x2 
                0x0000000020000024                _edata = .

.igot.plt       0x0000000020000024        0x0 load address 0x0000000008005dd8
 .igot.plt      0x0000000020000024        0x0 c:/st/stm32cubeide_1.0.2/stm32cubeide/plugins/com.st.stm32cube.ide.mcu.externaltools.gnu-tools-for-stm32.7-2018-q2-update.win32_1.0.0.201904181610/tools/bin/../lib/gcc/arm-none-eabi/7.3.1/thumb/v6-m/crtbegin.o
                0x0000000020000024                . = ALIGN (0x4)

.bss            0x0000000020000028      0x6b8 load address 0x0000000008005dd8
                0x0000000020000028                _sbss = .
                0x0000000020000028                __bss_start__ = _sbss
 *(.bss)
 .bss           0x0000000020000028       0x1c c:/st/stm32cubeide_1.0.2/stm32cubeide/plugins/com.st.stm32cube.ide.mcu.externaltools.gnu-tools-for-stm32.7-2018-q2-update.win32_1.0.0.201904181610/tools/bin/../lib/gcc/arm-none-eabi/7.3.1/thumb/v6-m/crtbegin.o
 *(.bss*)
 .bss.adc_values
                0x0000000020000044        0xa UsrSrc/Program.o
                0x0000000020000044                adc_values
 .bss.update    0x000000002000004e        0x1 UsrSrc/Program.o
                0x000000002000004e                update
 *fill*         0x000000002000004f        0x1 
 .bss.pos_i     0x0000000020000050        0x8 UsrSrc/Program.o
                0x0000000020000050                pos_i
 .bss.pos_d     0x0000000020000058        0x8 UsrSrc/Program.o
                0x0000000020000058                pos_d
 .bss.vel_i     0x0000000020000060        0x8 UsrSrc/Program.o
                0x0000000020000060                vel_i
 .bss.vel_d     0x0000000020000068        0x8 UsrSrc/Program.o
                0x0000000020000068                vel_d
 .bss.filterAplha
                0x0000000020000070        0x8 UsrSrc/Program.o
                0x0000000020000070                filterAplha
 .bss.vCurrentValue
                0x0000000020000078        0x8 UsrSrc/Servo.o
                0x0000000020000078                vCurrentValue
 .bss.pidPosValue
                0x0000000020000080        0x8 UsrSrc/Servo.o
                0x0000000020000080                pidPosValue
 .bss.pidVelValue
                0x0000000020000088        0x8 UsrSrc/Servo.o
                0x0000000020000088                pidVelValue
 .bss.angleCurrent
                0x0000000020000090        0x8 UsrSrc/Servo.o
                0x0000000020000090                angleCurrent
 .bss.angleCurrentFiltered
                0x0000000020000098        0x8 UsrSrc/Servo.o
                0x0000000020000098                angleCurrentFiltered
 .bss.angleToReache
                0x00000000200000a0        0x8 UsrSrc/Servo.o
                0x00000000200000a0                angleToReache
 .bss.pidTime   0x00000000200000a8        0x8 UsrSrc/Servo.o
                0x00000000200000a8                pidTime
 *(COMMON)
 COMMON         0x00000000200000b0      0x584 Core/Src/adc.o
                0x00000000200000b0                adc_buffer
                0x00000000200005b0                hdma_adc
                0x00000000200005f4                hadc
 COMMON         0x0000000020000634       0x28 Core/Src/can.o
                0x0000000020000634                hcan
 COMMON         0x000000002000065c       0x80 Core/Src/tim.o
                0x000000002000065c                pwmTimer
                0x000000002000069c                pidTimer
 COMMON         0x00000000200006dc        0x4 Drivers/STM32F0xx_HAL_Driver/Src/stm32f0xx_hal.o
                0x00000000200006dc                uwTick
                0x00000000200006e0                . = ALIGN (0x4)
                0x00000000200006e0                _ebss = .
                0x00000000200006e0                __bss_end__ = _ebss

._user_heap_stack
                0x00000000200006e0      0x600 load address 0x0000000008005dd8
                0x00000000200006e0                . = ALIGN (0x8)
                0x00000000200006e0                PROVIDE (end = .)
                [!provide]                        PROVIDE (_end = .)
                0x00000000200008e0                . = (. + _Min_Heap_Size)
 *fill*         0x00000000200006e0      0x200 
                0x0000000020000ce0                . = (. + _Min_Stack_Size)
 *fill*         0x00000000200008e0      0x400 
                0x0000000020000ce0                . = ALIGN (0x8)

/DISCARD/
 libc.a(*)
 libm.a(*)
 libgcc.a(*)

.ARM.attributes
                0x0000000000000000       0x28
 *(.ARM.attributes)
 .ARM.attributes
                0x0000000000000000       0x1e c:/st/stm32cubeide_1.0.2/stm32cubeide/plugins/com.st.stm32cube.ide.mcu.externaltools.gnu-tools-for-stm32.7-2018-q2-update.win32_1.0.0.201904181610/tools/bin/../lib/gcc/arm-none-eabi/7.3.1/thumb/v6-m/crti.o
 .ARM.attributes
                0x000000000000001e       0x2c c:/st/stm32cubeide_1.0.2/stm32cubeide/plugins/com.st.stm32cube.ide.mcu.externaltools.gnu-tools-for-stm32.7-2018-q2-update.win32_1.0.0.201904181610/tools/bin/../lib/gcc/arm-none-eabi/7.3.1/thumb/v6-m/crtbegin.o
 .ARM.attributes
                0x000000000000004a       0x31 Core/Src/adc.o
 .ARM.attributes
                0x000000000000007b       0x31 Core/Src/can.o
 .ARM.attributes
                0x00000000000000ac       0x31 Core/Src/dma.o
 .ARM.attributes
                0x00000000000000dd       0x31 Core/Src/gpio.o
 .ARM.attributes
                0x000000000000010e       0x31 Core/Src/main.o
 .ARM.attributes
                0x000000000000013f       0x31 Core/Src/stm32f0xx_hal_msp.o
 .ARM.attributes
                0x0000000000000170       0x31 Core/Src/stm32f0xx_it.o
 .ARM.attributes
                0x00000000000001a1       0x31 Core/Src/system_stm32f0xx.o
 .ARM.attributes
                0x00000000000001d2       0x31 Core/Src/tim.o
 .ARM.attributes
                0x0000000000000203       0x21 Core/Startup/startup_stm32f042g6ux.o
 .ARM.attributes
                0x0000000000000224       0x31 Drivers/STM32F0xx_HAL_Driver/Src/stm32f0xx_hal.o
 .ARM.attributes
                0x0000000000000255       0x31 Drivers/STM32F0xx_HAL_Driver/Src/stm32f0xx_hal_adc.o
 .ARM.attributes
                0x0000000000000286       0x31 Drivers/STM32F0xx_HAL_Driver/Src/stm32f0xx_hal_can.o
 .ARM.attributes
                0x00000000000002b7       0x31 Drivers/STM32F0xx_HAL_Driver/Src/stm32f0xx_hal_cortex.o
 .ARM.attributes
                0x00000000000002e8       0x31 Drivers/STM32F0xx_HAL_Driver/Src/stm32f0xx_hal_dma.o
 .ARM.attributes
                0x0000000000000319       0x31 Drivers/STM32F0xx_HAL_Driver/Src/stm32f0xx_hal_gpio.o
 .ARM.attributes
                0x000000000000034a       0x31 Drivers/STM32F0xx_HAL_Driver/Src/stm32f0xx_hal_rcc.o
 .ARM.attributes
                0x000000000000037b       0x31 Drivers/STM32F0xx_HAL_Driver/Src/stm32f0xx_hal_tim.o
 .ARM.attributes
                0x00000000000003ac       0x31 Drivers/STM32F0xx_HAL_Driver/Src/stm32f0xx_hal_tim_ex.o
 .ARM.attributes
                0x00000000000003dd       0x31 UsrSrc/MotorDriver.o
 .ARM.attributes
                0x000000000000040e       0x31 UsrSrc/PID.o
 .ARM.attributes
                0x000000000000043f       0x31 UsrSrc/Program.o
 .ARM.attributes
                0x0000000000000470       0x31 UsrSrc/Sensors.o
 .ARM.attributes
                0x00000000000004a1       0x31 UsrSrc/Servo.o
 .ARM.attributes
                0x00000000000004d2       0x2c c:/st/stm32cubeide_1.0.2/stm32cubeide/plugins/com.st.stm32cube.ide.mcu.externaltools.gnu-tools-for-stm32.7-2018-q2-update.win32_1.0.0.201904181610/tools/bin/../lib/gcc/arm-none-eabi/7.3.1/../../../../arm-none-eabi/lib/thumb/v6-m\libm.a(lib_a-s_copysign.o)
 .ARM.attributes
                0x00000000000004fe       0x2c c:/st/stm32cubeide_1.0.2/stm32cubeide/plugins/com.st.stm32cube.ide.mcu.externaltools.gnu-tools-for-stm32.7-2018-q2-update.win32_1.0.0.201904181610/tools/bin/../lib/gcc/arm-none-eabi/7.3.1/../../../../arm-none-eabi/lib/thumb/v6-m\libc_nano.a(lib_a-init.o)
 .ARM.attributes
                0x000000000000052a       0x2c c:/st/stm32cubeide_1.0.2/stm32cubeide/plugins/com.st.stm32cube.ide.mcu.externaltools.gnu-tools-for-stm32.7-2018-q2-update.win32_1.0.0.201904181610/tools/bin/../lib/gcc/arm-none-eabi/7.3.1/../../../../arm-none-eabi/lib/thumb/v6-m\libc_nano.a(lib_a-memset.o)
 .ARM.attributes
                0x0000000000000556       0x1e c:/st/stm32cubeide_1.0.2/stm32cubeide/plugins/com.st.stm32cube.ide.mcu.externaltools.gnu-tools-for-stm32.7-2018-q2-update.win32_1.0.0.201904181610/tools/bin/../lib/gcc/arm-none-eabi/7.3.1/thumb/v6-m\libgcc.a(_udivsi3.o)
 .ARM.attributes
                0x0000000000000574       0x1e c:/st/stm32cubeide_1.0.2/stm32cubeide/plugins/com.st.stm32cube.ide.mcu.externaltools.gnu-tools-for-stm32.7-2018-q2-update.win32_1.0.0.201904181610/tools/bin/../lib/gcc/arm-none-eabi/7.3.1/thumb/v6-m\libgcc.a(_dvmd_tls.o)
 .ARM.attributes
                0x0000000000000592       0x1e c:/st/stm32cubeide_1.0.2/stm32cubeide/plugins/com.st.stm32cube.ide.mcu.externaltools.gnu-tools-for-stm32.7-2018-q2-update.win32_1.0.0.201904181610/tools/bin/../lib/gcc/arm-none-eabi/7.3.1/thumb/v6-m\libgcc.a(_arm_cmpdf2.o)
 .ARM.attributes
                0x00000000000005b0       0x2c c:/st/stm32cubeide_1.0.2/stm32cubeide/plugins/com.st.stm32cube.ide.mcu.externaltools.gnu-tools-for-stm32.7-2018-q2-update.win32_1.0.0.201904181610/tools/bin/../lib/gcc/arm-none-eabi/7.3.1/thumb/v6-m\libgcc.a(_fixunsdfsi.o)
 .ARM.attributes
                0x00000000000005dc       0x2c c:/st/stm32cubeide_1.0.2/stm32cubeide/plugins/com.st.stm32cube.ide.mcu.externaltools.gnu-tools-for-stm32.7-2018-q2-update.win32_1.0.0.201904181610/tools/bin/../lib/gcc/arm-none-eabi/7.3.1/thumb/v6-m\libgcc.a(adddf3.o)
 .ARM.attributes
                0x0000000000000608       0x2c c:/st/stm32cubeide_1.0.2/stm32cubeide/plugins/com.st.stm32cube.ide.mcu.externaltools.gnu-tools-for-stm32.7-2018-q2-update.win32_1.0.0.201904181610/tools/bin/../lib/gcc/arm-none-eabi/7.3.1/thumb/v6-m\libgcc.a(divdf3.o)
 .ARM.attributes
                0x0000000000000634       0x2c c:/st/stm32cubeide_1.0.2/stm32cubeide/plugins/com.st.stm32cube.ide.mcu.externaltools.gnu-tools-for-stm32.7-2018-q2-update.win32_1.0.0.201904181610/tools/bin/../lib/gcc/arm-none-eabi/7.3.1/thumb/v6-m\libgcc.a(eqdf2.o)
 .ARM.attributes
                0x0000000000000660       0x2c c:/st/stm32cubeide_1.0.2/stm32cubeide/plugins/com.st.stm32cube.ide.mcu.externaltools.gnu-tools-for-stm32.7-2018-q2-update.win32_1.0.0.201904181610/tools/bin/../lib/gcc/arm-none-eabi/7.3.1/thumb/v6-m\libgcc.a(gedf2.o)
 .ARM.attributes
                0x000000000000068c       0x2c c:/st/stm32cubeide_1.0.2/stm32cubeide/plugins/com.st.stm32cube.ide.mcu.externaltools.gnu-tools-for-stm32.7-2018-q2-update.win32_1.0.0.201904181610/tools/bin/../lib/gcc/arm-none-eabi/7.3.1/thumb/v6-m\libgcc.a(ledf2.o)
 .ARM.attributes
                0x00000000000006b8       0x2c c:/st/stm32cubeide_1.0.2/stm32cubeide/plugins/com.st.stm32cube.ide.mcu.externaltools.gnu-tools-for-stm32.7-2018-q2-update.win32_1.0.0.201904181610/tools/bin/../lib/gcc/arm-none-eabi/7.3.1/thumb/v6-m\libgcc.a(muldf3.o)
 .ARM.attributes
                0x00000000000006e4       0x2c c:/st/stm32cubeide_1.0.2/stm32cubeide/plugins/com.st.stm32cube.ide.mcu.externaltools.gnu-tools-for-stm32.7-2018-q2-update.win32_1.0.0.201904181610/tools/bin/../lib/gcc/arm-none-eabi/7.3.1/thumb/v6-m\libgcc.a(subdf3.o)
 .ARM.attributes
                0x0000000000000710       0x2c c:/st/stm32cubeide_1.0.2/stm32cubeide/plugins/com.st.stm32cube.ide.mcu.externaltools.gnu-tools-for-stm32.7-2018-q2-update.win32_1.0.0.201904181610/tools/bin/../lib/gcc/arm-none-eabi/7.3.1/thumb/v6-m\libgcc.a(fixdfsi.o)
 .ARM.attributes
                0x000000000000073c       0x2c c:/st/stm32cubeide_1.0.2/stm32cubeide/plugins/com.st.stm32cube.ide.mcu.externaltools.gnu-tools-for-stm32.7-2018-q2-update.win32_1.0.0.201904181610/tools/bin/../lib/gcc/arm-none-eabi/7.3.1/thumb/v6-m\libgcc.a(floatsidf.o)
 .ARM.attributes
                0x0000000000000768       0x2c c:/st/stm32cubeide_1.0.2/stm32cubeide/plugins/com.st.stm32cube.ide.mcu.externaltools.gnu-tools-for-stm32.7-2018-q2-update.win32_1.0.0.201904181610/tools/bin/../lib/gcc/arm-none-eabi/7.3.1/thumb/v6-m\libgcc.a(floatunsidf.o)
 .ARM.attributes
                0x0000000000000794       0x1e c:/st/stm32cubeide_1.0.2/stm32cubeide/plugins/com.st.stm32cube.ide.mcu.externaltools.gnu-tools-for-stm32.7-2018-q2-update.win32_1.0.0.201904181610/tools/bin/../lib/gcc/arm-none-eabi/7.3.1/thumb/v6-m\libgcc.a(_clzsi2.o)
 .ARM.attributes
                0x00000000000007b2       0x1e c:/st/stm32cubeide_1.0.2/stm32cubeide/plugins/com.st.stm32cube.ide.mcu.externaltools.gnu-tools-for-stm32.7-2018-q2-update.win32_1.0.0.201904181610/tools/bin/../lib/gcc/arm-none-eabi/7.3.1/thumb/v6-m/crtn.o
OUTPUT(SmartServo.elf elf32-littlearm)

.debug_info     0x0000000000000000    0x12626
 .debug_info    0x0000000000000000      0xc21 Core/Src/adc.o
 .debug_info    0x0000000000000c21      0xc2d Core/Src/can.o
 .debug_info    0x000000000000184e      0x7a8 Core/Src/dma.o
 .debug_info    0x0000000000001ff6      0x84d Core/Src/gpio.o
 .debug_info    0x0000000000002843      0xd5d Core/Src/main.o
 .debug_info    0x00000000000035a0      0x755 Core/Src/stm32f0xx_hal_msp.o
 .debug_info    0x0000000000003cf5      0x656 Core/Src/stm32f0xx_it.o
 .debug_info    0x000000000000434b      0x29e Core/Src/system_stm32f0xx.o
 .debug_info    0x00000000000045e9      0xa4b Core/Src/tim.o
 .debug_info    0x0000000000005034       0x22 Core/Startup/startup_stm32f042g6ux.o
 .debug_info    0x0000000000005056      0x69d Drivers/STM32F0xx_HAL_Driver/Src/stm32f0xx_hal.o
 .debug_info    0x00000000000056f3      0xca9 Drivers/STM32F0xx_HAL_Driver/Src/stm32f0xx_hal_adc.o
 .debug_info    0x000000000000639c      0xf1e Drivers/STM32F0xx_HAL_Driver/Src/stm32f0xx_hal_can.o
 .debug_info    0x00000000000072ba      0x76e Drivers/STM32F0xx_HAL_Driver/Src/stm32f0xx_hal_cortex.o
 .debug_info    0x0000000000007a28      0x7a9 Drivers/STM32F0xx_HAL_Driver/Src/stm32f0xx_hal_dma.o
 .debug_info    0x00000000000081d1      0x67a Drivers/STM32F0xx_HAL_Driver/Src/stm32f0xx_hal_gpio.o
 .debug_info    0x000000000000884b      0x82d Drivers/STM32F0xx_HAL_Driver/Src/stm32f0xx_hal_rcc.o
 .debug_info    0x0000000000009078     0x252c Drivers/STM32F0xx_HAL_Driver/Src/stm32f0xx_hal_tim.o
 .debug_info    0x000000000000b5a4     0x10f0 Drivers/STM32F0xx_HAL_Driver/Src/stm32f0xx_hal_tim_ex.o
 .debug_info    0x000000000000c694      0x983 UsrSrc/MotorDriver.o
 .debug_info    0x000000000000d017      0xd25 UsrSrc/PID.o
 .debug_info    0x000000000000dd3c     0x218d UsrSrc/Program.o
 .debug_info    0x000000000000fec9      0x896 UsrSrc/Sensors.o
 .debug_info    0x000000000001075f     0x1ec7 UsrSrc/Servo.o

.debug_abbrev   0x0000000000000000     0x30b5
 .debug_abbrev  0x0000000000000000      0x1e0 Core/Src/adc.o
 .debug_abbrev  0x00000000000001e0      0x1d5 Core/Src/can.o
 .debug_abbrev  0x00000000000003b5      0x163 Core/Src/dma.o
 .debug_abbrev  0x0000000000000518      0x174 Core/Src/gpio.o
 .debug_abbrev  0x000000000000068c      0x1e6 Core/Src/main.o
 .debug_abbrev  0x0000000000000872      0x165 Core/Src/stm32f0xx_hal_msp.o
 .debug_abbrev  0x00000000000009d7      0x15a Core/Src/stm32f0xx_it.o
 .debug_abbrev  0x0000000000000b31      0x12b Core/Src/system_stm32f0xx.o
 .debug_abbrev  0x0000000000000c5c      0x1b9 Core/Src/tim.o
 .debug_abbrev  0x0000000000000e15       0x12 Core/Startup/startup_stm32f042g6ux.o
 .debug_abbrev  0x0000000000000e27      0x1f2 Drivers/STM32F0xx_HAL_Driver/Src/stm32f0xx_hal.o
 .debug_abbrev  0x0000000000001019      0x207 Drivers/STM32F0xx_HAL_Driver/Src/stm32f0xx_hal_adc.o
 .debug_abbrev  0x0000000000001220      0x1b7 Drivers/STM32F0xx_HAL_Driver/Src/stm32f0xx_hal_can.o
 .debug_abbrev  0x00000000000013d7      0x273 Drivers/STM32F0xx_HAL_Driver/Src/stm32f0xx_hal_cortex.o
 .debug_abbrev  0x000000000000164a      0x216 Drivers/STM32F0xx_HAL_Driver/Src/stm32f0xx_hal_dma.o
 .debug_abbrev  0x0000000000001860      0x1c0 Drivers/STM32F0xx_HAL_Driver/Src/stm32f0xx_hal_gpio.o
 .debug_abbrev  0x0000000000001a20      0x20f Drivers/STM32F0xx_HAL_Driver/Src/stm32f0xx_hal_rcc.o
 .debug_abbrev  0x0000000000001c2f      0x230 Drivers/STM32F0xx_HAL_Driver/Src/stm32f0xx_hal_tim.o
 .debug_abbrev  0x0000000000001e5f      0x21e Drivers/STM32F0xx_HAL_Driver/Src/stm32f0xx_hal_tim_ex.o
 .debug_abbrev  0x000000000000207d      0x218 UsrSrc/MotorDriver.o
 .debug_abbrev  0x0000000000002295      0x377 UsrSrc/PID.o
 .debug_abbrev  0x000000000000260c      0x3ef UsrSrc/Program.o
 .debug_abbrev  0x00000000000029fb      0x203 UsrSrc/Sensors.o
 .debug_abbrev  0x0000000000002bfe      0x4b7 UsrSrc/Servo.o

.debug_aranges  0x0000000000000000      0xda0
 .debug_aranges
                0x0000000000000000       0x50 Core/Src/adc.o
 .debug_aranges
                0x0000000000000050       0x30 Core/Src/can.o
 .debug_aranges
                0x0000000000000080       0x20 Core/Src/dma.o
 .debug_aranges
                0x00000000000000a0       0x20 Core/Src/gpio.o
 .debug_aranges
                0x00000000000000c0       0x38 Core/Src/main.o
 .debug_aranges
                0x00000000000000f8       0x20 Core/Src/stm32f0xx_hal_msp.o
 .debug_aranges
                0x0000000000000118       0x48 Core/Src/stm32f0xx_it.o
 .debug_aranges
                0x0000000000000160       0x28 Core/Src/system_stm32f0xx.o
 .debug_aranges
                0x0000000000000188       0x50 Core/Src/tim.o
 .debug_aranges
                0x00000000000001d8       0x28 Core/Startup/startup_stm32f042g6ux.o
 .debug_aranges
                0x0000000000000200       0xd0 Drivers/STM32F0xx_HAL_Driver/Src/stm32f0xx_hal.o
 .debug_aranges
                0x00000000000002d0       0xf8 Drivers/STM32F0xx_HAL_Driver/Src/stm32f0xx_hal_adc.o
 .debug_aranges
                0x00000000000003c8      0x138 Drivers/STM32F0xx_HAL_Driver/Src/stm32f0xx_hal_can.o
 .debug_aranges
                0x0000000000000500       0xc0 Drivers/STM32F0xx_HAL_Driver/Src/stm32f0xx_hal_cortex.o
 .debug_aranges
                0x00000000000005c0       0x88 Drivers/STM32F0xx_HAL_Driver/Src/stm32f0xx_hal_dma.o
 .debug_aranges
                0x0000000000000648       0x58 Drivers/STM32F0xx_HAL_Driver/Src/stm32f0xx_hal_gpio.o
 .debug_aranges
                0x00000000000006a0       0x80 Drivers/STM32F0xx_HAL_Driver/Src/stm32f0xx_hal_rcc.o
 .debug_aranges
                0x0000000000000720      0x3b8 Drivers/STM32F0xx_HAL_Driver/Src/stm32f0xx_hal_tim.o
 .debug_aranges
                0x0000000000000ad8      0x150 Drivers/STM32F0xx_HAL_Driver/Src/stm32f0xx_hal_tim_ex.o
 .debug_aranges
                0x0000000000000c28       0x48 UsrSrc/MotorDriver.o
 .debug_aranges
                0x0000000000000c70       0x50 UsrSrc/PID.o
 .debug_aranges
                0x0000000000000cc0       0x48 UsrSrc/Program.o
 .debug_aranges
                0x0000000000000d08       0x30 UsrSrc/Sensors.o
 .debug_aranges
                0x0000000000000d38       0x68 UsrSrc/Servo.o

.debug_ranges   0x0000000000000000      0xc28
 .debug_ranges  0x0000000000000000       0x40 Core/Src/adc.o
 .debug_ranges  0x0000000000000040       0x20 Core/Src/can.o
 .debug_ranges  0x0000000000000060       0x10 Core/Src/dma.o
 .debug_ranges  0x0000000000000070       0x10 Core/Src/gpio.o
 .debug_ranges  0x0000000000000080       0x28 Core/Src/main.o
 .debug_ranges  0x00000000000000a8       0x10 Core/Src/stm32f0xx_hal_msp.o
 .debug_ranges  0x00000000000000b8       0x38 Core/Src/stm32f0xx_it.o
 .debug_ranges  0x00000000000000f0       0x18 Core/Src/system_stm32f0xx.o
 .debug_ranges  0x0000000000000108       0x40 Core/Src/tim.o
 .debug_ranges  0x0000000000000148       0x20 Core/Startup/startup_stm32f042g6ux.o
 .debug_ranges  0x0000000000000168       0xc0 Drivers/STM32F0xx_HAL_Driver/Src/stm32f0xx_hal.o
 .debug_ranges  0x0000000000000228       0xe8 Drivers/STM32F0xx_HAL_Driver/Src/stm32f0xx_hal_adc.o
 .debug_ranges  0x0000000000000310      0x128 Drivers/STM32F0xx_HAL_Driver/Src/stm32f0xx_hal_can.o
 .debug_ranges  0x0000000000000438       0xb0 Drivers/STM32F0xx_HAL_Driver/Src/stm32f0xx_hal_cortex.o
 .debug_ranges  0x00000000000004e8       0x78 Drivers/STM32F0xx_HAL_Driver/Src/stm32f0xx_hal_dma.o
 .debug_ranges  0x0000000000000560       0x48 Drivers/STM32F0xx_HAL_Driver/Src/stm32f0xx_hal_gpio.o
 .debug_ranges  0x00000000000005a8       0x70 Drivers/STM32F0xx_HAL_Driver/Src/stm32f0xx_hal_rcc.o
 .debug_ranges  0x0000000000000618      0x3a8 Drivers/STM32F0xx_HAL_Driver/Src/stm32f0xx_hal_tim.o
 .debug_ranges  0x00000000000009c0      0x140 Drivers/STM32F0xx_HAL_Driver/Src/stm32f0xx_hal_tim_ex.o
 .debug_ranges  0x0000000000000b00       0x38 UsrSrc/MotorDriver.o
 .debug_ranges  0x0000000000000b38       0x40 UsrSrc/PID.o
 .debug_ranges  0x0000000000000b78       0x38 UsrSrc/Program.o
 .debug_ranges  0x0000000000000bb0       0x20 UsrSrc/Sensors.o
 .debug_ranges  0x0000000000000bd0       0x58 UsrSrc/Servo.o

.debug_macro    0x0000000000000000    0x18663
 .debug_macro   0x0000000000000000      0x1f6 Core/Src/adc.o
 .debug_macro   0x00000000000001f6      0xa48 Core/Src/adc.o
 .debug_macro   0x0000000000000c3e      0x139 Core/Src/adc.o
 .debug_macro   0x0000000000000d77       0x2e Core/Src/adc.o
 .debug_macro   0x0000000000000da5       0x22 Core/Src/adc.o
 .debug_macro   0x0000000000000dc7       0x22 Core/Src/adc.o
 .debug_macro   0x0000000000000de9       0x8e Core/Src/adc.o
 .debug_macro   0x0000000000000e77       0x51 Core/Src/adc.o
 .debug_macro   0x0000000000000ec8       0xef Core/Src/adc.o
 .debug_macro   0x0000000000000fb7       0x6a Core/Src/adc.o
 .debug_macro   0x0000000000001021      0x1df Core/Src/adc.o
 .debug_macro   0x0000000000001200       0x1c Core/Src/adc.o
 .debug_macro   0x000000000000121c       0x22 Core/Src/adc.o
 .debug_macro   0x000000000000123e       0xb5 Core/Src/adc.o
 .debug_macro   0x00000000000012f3      0x391 Core/Src/adc.o
 .debug_macro   0x0000000000001684     0xf1e6 Core/Src/adc.o
 .debug_macro   0x000000000001086a       0x3c Core/Src/adc.o
 .debug_macro   0x00000000000108a6      0x174 Core/Src/adc.o
 .debug_macro   0x0000000000010a1a       0x53 Core/Src/adc.o
 .debug_macro   0x0000000000010a6d      0x946 Core/Src/adc.o
 .debug_macro   0x00000000000113b3      0x46b Core/Src/adc.o
 .debug_macro   0x000000000001181e      0x12f Core/Src/adc.o
 .debug_macro   0x000000000001194d      0x130 Core/Src/adc.o
 .debug_macro   0x0000000000011a7d      0x199 Core/Src/adc.o
 .debug_macro   0x0000000000011c16      0x1ed Core/Src/adc.o
 .debug_macro   0x0000000000011e03       0x34 Core/Src/adc.o
 .debug_macro   0x0000000000011e37       0x43 Core/Src/adc.o
 .debug_macro   0x0000000000011e7a       0x28 Core/Src/adc.o
 .debug_macro   0x0000000000011ea2      0x33d Core/Src/adc.o
 .debug_macro   0x00000000000121df       0xce Core/Src/adc.o
 .debug_macro   0x00000000000122ad      0x408 Core/Src/adc.o
 .debug_macro   0x00000000000126b5       0xb0 Core/Src/adc.o
 .debug_macro   0x0000000000012765      0x182 Core/Src/adc.o
 .debug_macro   0x00000000000128e7      0x22c Core/Src/adc.o
 .debug_macro   0x0000000000012b13       0x5f Core/Src/adc.o
 .debug_macro   0x0000000000012b72       0xa5 Core/Src/adc.o
 .debug_macro   0x0000000000012c17       0x4c Core/Src/adc.o
 .debug_macro   0x0000000000012c63      0x15b Core/Src/adc.o
 .debug_macro   0x0000000000012dbe      0x8ae Core/Src/adc.o
 .debug_macro   0x000000000001366c       0x28 Core/Src/adc.o
 .debug_macro   0x0000000000013694      0x12e Core/Src/adc.o
 .debug_macro   0x00000000000137c2       0xfa Core/Src/adc.o
 .debug_macro   0x00000000000138bc       0x22 Core/Src/adc.o
 .debug_macro   0x00000000000138de      0x1ed Core/Src/can.o
 .debug_macro   0x0000000000013acb      0x1ed Core/Src/dma.o
 .debug_macro   0x0000000000013cb8      0x1ed Core/Src/gpio.o
 .debug_macro   0x0000000000013ea5      0x222 Core/Src/main.o
 .debug_macro   0x00000000000140c7      0x1e3 Core/Src/stm32f0xx_hal_msp.o
 .debug_macro   0x00000000000142aa      0x1ed Core/Src/stm32f0xx_it.o
 .debug_macro   0x0000000000014497      0x1c2 Core/Src/system_stm32f0xx.o
 .debug_macro   0x0000000000014659      0x1e3 Core/Src/tim.o
 .debug_macro   0x000000000001483c      0x1e6 Drivers/STM32F0xx_HAL_Driver/Src/stm32f0xx_hal.o
 .debug_macro   0x0000000000014a22      0x1e6 Drivers/STM32F0xx_HAL_Driver/Src/stm32f0xx_hal_adc.o
 .debug_macro   0x0000000000014c08      0x1ca Drivers/STM32F0xx_HAL_Driver/Src/stm32f0xx_hal_can.o
 .debug_macro   0x0000000000014dd2      0x1c2 Drivers/STM32F0xx_HAL_Driver/Src/stm32f0xx_hal_cortex.o
 .debug_macro   0x0000000000014f94      0x1c2 Drivers/STM32F0xx_HAL_Driver/Src/stm32f0xx_hal_dma.o
 .debug_macro   0x0000000000015156      0x1fa Drivers/STM32F0xx_HAL_Driver/Src/stm32f0xx_hal_gpio.o
 .debug_macro   0x0000000000015350      0x1d4 Drivers/STM32F0xx_HAL_Driver/Src/stm32f0xx_hal_rcc.o
 .debug_macro   0x0000000000015524      0x1c3 Drivers/STM32F0xx_HAL_Driver/Src/stm32f0xx_hal_tim.o
 .debug_macro   0x00000000000156e7      0x1c2 Drivers/STM32F0xx_HAL_Driver/Src/stm32f0xx_hal_tim_ex.o
 .debug_macro   0x00000000000158a9      0x1f6 UsrSrc/MotorDriver.o
 .debug_macro   0x0000000000015a9f      0xb1a UsrSrc/MotorDriver.o
 .debug_macro   0x00000000000165b9       0x1c UsrSrc/MotorDriver.o
 .debug_macro   0x00000000000165d5      0x391 UsrSrc/MotorDriver.o
 .debug_macro   0x0000000000016966      0x17b UsrSrc/MotorDriver.o
 .debug_macro   0x0000000000016ae1      0x224 UsrSrc/PID.o
 .debug_macro   0x0000000000016d05      0x11a UsrSrc/PID.o
 .debug_macro   0x0000000000016e1f      0x37d UsrSrc/Program.o
 .debug_macro   0x000000000001719c       0x16 UsrSrc/Program.o
 .debug_macro   0x00000000000171b2       0x46 UsrSrc/Program.o
 .debug_macro   0x00000000000171f8       0x34 UsrSrc/Program.o
 .debug_macro   0x000000000001722c       0x43 UsrSrc/Program.o
 .debug_macro   0x000000000001726f      0x34d UsrSrc/Program.o
 .debug_macro   0x00000000000175bc      0x1da UsrSrc/Program.o
 .debug_macro   0x0000000000017796       0x10 UsrSrc/Program.o
 .debug_macro   0x00000000000177a6       0x35 UsrSrc/Program.o
 .debug_macro   0x00000000000177db       0x10 UsrSrc/Program.o
 .debug_macro   0x00000000000177eb      0x3c7 UsrSrc/Program.o
 .debug_macro   0x0000000000017bb2      0x120 UsrSrc/Program.o
 .debug_macro   0x0000000000017cd2      0x1f2 UsrSrc/Sensors.o
 .debug_macro   0x0000000000017ec4      0x350 UsrSrc/Servo.o
 .debug_macro   0x0000000000018214      0x353 UsrSrc/Servo.o
 .debug_macro   0x0000000000018567       0xaf UsrSrc/Servo.o
 .debug_macro   0x0000000000018616       0x4d UsrSrc/Servo.o

.debug_line     0x0000000000000000     0xdbf8
 .debug_line    0x0000000000000000      0x79d Core/Src/adc.o
 .debug_line    0x000000000000079d      0x70a Core/Src/can.o
 .debug_line    0x0000000000000ea7      0x6d1 Core/Src/dma.o
 .debug_line    0x0000000000001578      0x6de Core/Src/gpio.o
 .debug_line    0x0000000000001c56      0x764 Core/Src/main.o
 .debug_line    0x00000000000023ba      0x6d7 Core/Src/stm32f0xx_hal_msp.o
 .debug_line    0x0000000000002a91      0x73c Core/Src/stm32f0xx_it.o
 .debug_line    0x00000000000031cd      0x6d4 Core/Src/system_stm32f0xx.o
 .debug_line    0x00000000000038a1      0x763 Core/Src/tim.o
 .debug_line    0x0000000000004004       0x9b Core/Startup/startup_stm32f042g6ux.o
 .debug_line    0x000000000000409f      0x867 Drivers/STM32F0xx_HAL_Driver/Src/stm32f0xx_hal.o
 .debug_line    0x0000000000004906      0xc44 Drivers/STM32F0xx_HAL_Driver/Src/stm32f0xx_hal_adc.o
 .debug_line    0x000000000000554a      0xb4e Drivers/STM32F0xx_HAL_Driver/Src/stm32f0xx_hal_can.o
 .debug_line    0x0000000000006098      0x87f Drivers/STM32F0xx_HAL_Driver/Src/stm32f0xx_hal_cortex.o
 .debug_line    0x0000000000006917      0x8c5 Drivers/STM32F0xx_HAL_Driver/Src/stm32f0xx_hal_dma.o
 .debug_line    0x00000000000071dc      0x819 Drivers/STM32F0xx_HAL_Driver/Src/stm32f0xx_hal_gpio.o
 .debug_line    0x00000000000079f5      0x953 Drivers/STM32F0xx_HAL_Driver/Src/stm32f0xx_hal_rcc.o
 .debug_line    0x0000000000008348     0x1a1c Drivers/STM32F0xx_HAL_Driver/Src/stm32f0xx_hal_tim.o
 .debug_line    0x0000000000009d64      0xcae Drivers/STM32F0xx_HAL_Driver/Src/stm32f0xx_hal_tim_ex.o
 .debug_line    0x000000000000aa12      0x751 UsrSrc/MotorDriver.o
 .debug_line    0x000000000000b163      0x979 UsrSrc/PID.o
 .debug_line    0x000000000000badc      0xcdf UsrSrc/Program.o
 .debug_line    0x000000000000c7bb      0x70f UsrSrc/Sensors.o
 .debug_line    0x000000000000ceca      0xd2e UsrSrc/Servo.o

.debug_str      0x0000000000000000    0x7d86b
 .debug_str     0x0000000000000000    0x72a7a Core/Src/adc.o
                                      0x72de3 (size before relaxing)
 .debug_str     0x0000000000072a7a      0x267 Core/Src/can.o
                                      0x72dc6 (size before relaxing)
 .debug_str     0x0000000000072ce1      0x162 Core/Src/dma.o
                                      0x72c25 (size before relaxing)
 .debug_str     0x0000000000072e43       0x39 Core/Src/gpio.o
                                      0x72b21 (size before relaxing)
 .debug_str     0x0000000000072e7c      0x171 Core/Src/main.o
                                      0x72ffa (size before relaxing)
 .debug_str     0x0000000000072fed       0x4b Core/Src/stm32f0xx_hal_msp.o
                                      0x72ab0 (size before relaxing)
 .debug_str     0x0000000000073038       0x76 Core/Src/stm32f0xx_it.o
                                      0x72a9d (size before relaxing)
 .debug_str     0x00000000000730ae       0x5f Core/Src/system_stm32f0xx.o
                                      0x723b2 (size before relaxing)
 .debug_str     0x000000000007310d      0x1b0 Core/Src/tim.o
                                      0x72ccc (size before relaxing)
 .debug_str     0x00000000000732bd       0x6e Core/Startup/startup_stm32f042g6ux.o
 .debug_str     0x000000000007332b      0x393 Drivers/STM32F0xx_HAL_Driver/Src/stm32f0xx_hal.o
                                      0x728dc (size before relaxing)
 .debug_str     0x00000000000736be      0x351 Drivers/STM32F0xx_HAL_Driver/Src/stm32f0xx_hal_adc.o
                                      0x72ab2 (size before relaxing)
 .debug_str     0x0000000000073a0f      0x56e Drivers/STM32F0xx_HAL_Driver/Src/stm32f0xx_hal_can.o
                                      0x72ba3 (size before relaxing)
 .debug_str     0x0000000000073f7d      0x1ee Drivers/STM32F0xx_HAL_Driver/Src/stm32f0xx_hal_cortex.o
                                      0x72790 (size before relaxing)
 .debug_str     0x000000000007416b      0x24d Drivers/STM32F0xx_HAL_Driver/Src/stm32f0xx_hal_dma.o
                                      0x7278a (size before relaxing)
 .debug_str     0x00000000000743b8      0x1e4 Drivers/STM32F0xx_HAL_Driver/Src/stm32f0xx_hal_gpio.o
                                      0x7264e (size before relaxing)
 .debug_str     0x000000000007459c      0x249 Drivers/STM32F0xx_HAL_Driver/Src/stm32f0xx_hal_rcc.o
                                      0x727c7 (size before relaxing)
 .debug_str     0x00000000000747e5      0xd30 Drivers/STM32F0xx_HAL_Driver/Src/stm32f0xx_hal_tim.o
                                      0x735ab (size before relaxing)
 .debug_str     0x0000000000075515      0x52f Drivers/STM32F0xx_HAL_Driver/Src/stm32f0xx_hal_tim_ex.o
                                      0x72d5f (size before relaxing)
 .debug_str     0x0000000000075a44      0x8bd UsrSrc/MotorDriver.o
                                      0x73196 (size before relaxing)
 .debug_str     0x0000000000076301     0x331c UsrSrc/PID.o
                                      0x7633f (size before relaxing)
 .debug_str     0x000000000007961d     0x4049 UsrSrc/Program.o
                                      0x7a519 (size before relaxing)
 .debug_str     0x000000000007d666       0x2d UsrSrc/Sensors.o
                                      0x730a5 (size before relaxing)
 .debug_str     0x000000000007d693      0x1d8 UsrSrc/Servo.o
                                      0x7a2dc (size before relaxing)

.comment        0x0000000000000000       0x7b
 .comment       0x0000000000000000       0x7b Core/Src/adc.o
                                         0x7c (size before relaxing)
 .comment       0x000000000000007b       0x7c Core/Src/can.o
 .comment       0x000000000000007b       0x7c Core/Src/dma.o
 .comment       0x000000000000007b       0x7c Core/Src/gpio.o
 .comment       0x000000000000007b       0x7c Core/Src/main.o
 .comment       0x000000000000007b       0x7c Core/Src/stm32f0xx_hal_msp.o
 .comment       0x000000000000007b       0x7c Core/Src/stm32f0xx_it.o
 .comment       0x000000000000007b       0x7c Core/Src/system_stm32f0xx.o
 .comment       0x000000000000007b       0x7c Core/Src/tim.o
 .comment       0x000000000000007b       0x7c Drivers/STM32F0xx_HAL_Driver/Src/stm32f0xx_hal.o
 .comment       0x000000000000007b       0x7c Drivers/STM32F0xx_HAL_Driver/Src/stm32f0xx_hal_adc.o
 .comment       0x000000000000007b       0x7c Drivers/STM32F0xx_HAL_Driver/Src/stm32f0xx_hal_can.o
 .comment       0x000000000000007b       0x7c Drivers/STM32F0xx_HAL_Driver/Src/stm32f0xx_hal_cortex.o
 .comment       0x000000000000007b       0x7c Drivers/STM32F0xx_HAL_Driver/Src/stm32f0xx_hal_dma.o
 .comment       0x000000000000007b       0x7c Drivers/STM32F0xx_HAL_Driver/Src/stm32f0xx_hal_gpio.o
 .comment       0x000000000000007b       0x7c Drivers/STM32F0xx_HAL_Driver/Src/stm32f0xx_hal_rcc.o
 .comment       0x000000000000007b       0x7c Drivers/STM32F0xx_HAL_Driver/Src/stm32f0xx_hal_tim.o
 .comment       0x000000000000007b       0x7c Drivers/STM32F0xx_HAL_Driver/Src/stm32f0xx_hal_tim_ex.o
 .comment       0x000000000000007b       0x7c UsrSrc/MotorDriver.o
 .comment       0x000000000000007b       0x7c UsrSrc/PID.o
 .comment       0x000000000000007b       0x7c UsrSrc/Program.o
 .comment       0x000000000000007b       0x7c UsrSrc/Sensors.o
 .comment       0x000000000000007b       0x7c UsrSrc/Servo.o

.debug_frame    0x0000000000000000     0x3110
 .debug_frame   0x0000000000000000       0xf0 Core/Src/adc.o
 .debug_frame   0x00000000000000f0       0x6c Core/Src/can.o
 .debug_frame   0x000000000000015c       0x30 Core/Src/dma.o
 .debug_frame   0x000000000000018c       0x30 Core/Src/gpio.o
 .debug_frame   0x00000000000001bc       0x84 Core/Src/main.o
 .debug_frame   0x0000000000000240       0x30 Core/Src/stm32f0xx_hal_msp.o
 .debug_frame   0x0000000000000270       0xb8 Core/Src/stm32f0xx_it.o
 .debug_frame   0x0000000000000328       0x4c Core/Src/system_stm32f0xx.o
 .debug_frame   0x0000000000000374       0xf0 Core/Src/tim.o
 .debug_frame   0x0000000000000464      0x2a4 Drivers/STM32F0xx_HAL_Driver/Src/stm32f0xx_hal.o
 .debug_frame   0x0000000000000708      0x3a0 Drivers/STM32F0xx_HAL_Driver/Src/stm32f0xx_hal_adc.o
 .debug_frame   0x0000000000000aa8      0x490 Drivers/STM32F0xx_HAL_Driver/Src/stm32f0xx_hal_can.o
 .debug_frame   0x0000000000000f38      0x2a0 Drivers/STM32F0xx_HAL_Driver/Src/stm32f0xx_hal_cortex.o
 .debug_frame   0x00000000000011d8      0x1d0 Drivers/STM32F0xx_HAL_Driver/Src/stm32f0xx_hal_dma.o
 .debug_frame   0x00000000000013a8      0x110 Drivers/STM32F0xx_HAL_Driver/Src/stm32f0xx_hal_gpio.o
 .debug_frame   0x00000000000014b8      0x198 Drivers/STM32F0xx_HAL_Driver/Src/stm32f0xx_hal_rcc.o
 .debug_frame   0x0000000000001650      0xe90 Drivers/STM32F0xx_HAL_Driver/Src/stm32f0xx_hal_tim.o
 .debug_frame   0x00000000000024e0      0x4f0 Drivers/STM32F0xx_HAL_Driver/Src/stm32f0xx_hal_tim_ex.o
 .debug_frame   0x00000000000029d0       0xd0 UsrSrc/MotorDriver.o
 .debug_frame   0x0000000000002aa0       0xf8 UsrSrc/PID.o
 .debug_frame   0x0000000000002b98       0xd8 UsrSrc/Program.o
 .debug_frame   0x0000000000002c70       0x70 UsrSrc/Sensors.o
 .debug_frame   0x0000000000002ce0      0x158 UsrSrc/Servo.o
 .debug_frame   0x0000000000002e38       0x2c c:/st/stm32cubeide_1.0.2/stm32cubeide/plugins/com.st.stm32cube.ide.mcu.externaltools.gnu-tools-for-stm32.7-2018-q2-update.win32_1.0.0.201904181610/tools/bin/../lib/gcc/arm-none-eabi/7.3.1/../../../../arm-none-eabi/lib/thumb/v6-m\libm.a(lib_a-s_copysign.o)
 .debug_frame   0x0000000000002e64       0x2c c:/st/stm32cubeide_1.0.2/stm32cubeide/plugins/com.st.stm32cube.ide.mcu.externaltools.gnu-tools-for-stm32.7-2018-q2-update.win32_1.0.0.201904181610/tools/bin/../lib/gcc/arm-none-eabi/7.3.1/../../../../arm-none-eabi/lib/thumb/v6-m\libc_nano.a(lib_a-init.o)
 .debug_frame   0x0000000000002e90       0x20 c:/st/stm32cubeide_1.0.2/stm32cubeide/plugins/com.st.stm32cube.ide.mcu.externaltools.gnu-tools-for-stm32.7-2018-q2-update.win32_1.0.0.201904181610/tools/bin/../lib/gcc/arm-none-eabi/7.3.1/../../../../arm-none-eabi/lib/thumb/v6-m\libc_nano.a(lib_a-memset.o)
 .debug_frame   0x0000000000002eb0       0x20 c:/st/stm32cubeide_1.0.2/stm32cubeide/plugins/com.st.stm32cube.ide.mcu.externaltools.gnu-tools-for-stm32.7-2018-q2-update.win32_1.0.0.201904181610/tools/bin/../lib/gcc/arm-none-eabi/7.3.1/thumb/v6-m\libgcc.a(_udivsi3.o)
 .debug_frame   0x0000000000002ed0       0x2c c:/st/stm32cubeide_1.0.2/stm32cubeide/plugins/com.st.stm32cube.ide.mcu.externaltools.gnu-tools-for-stm32.7-2018-q2-update.win32_1.0.0.201904181610/tools/bin/../lib/gcc/arm-none-eabi/7.3.1/thumb/v6-m\libgcc.a(_fixunsdfsi.o)
 .debug_frame   0x0000000000002efc       0x38 c:/st/stm32cubeide_1.0.2/stm32cubeide/plugins/com.st.stm32cube.ide.mcu.externaltools.gnu-tools-for-stm32.7-2018-q2-update.win32_1.0.0.201904181610/tools/bin/../lib/gcc/arm-none-eabi/7.3.1/thumb/v6-m\libgcc.a(adddf3.o)
 .debug_frame   0x0000000000002f34       0x3c c:/st/stm32cubeide_1.0.2/stm32cubeide/plugins/com.st.stm32cube.ide.mcu.externaltools.gnu-tools-for-stm32.7-2018-q2-update.win32_1.0.0.201904181610/tools/bin/../lib/gcc/arm-none-eabi/7.3.1/thumb/v6-m\libgcc.a(divdf3.o)
 .debug_frame   0x0000000000002f70       0x38 c:/st/stm32cubeide_1.0.2/stm32cubeide/plugins/com.st.stm32cube.ide.mcu.externaltools.gnu-tools-for-stm32.7-2018-q2-update.win32_1.0.0.201904181610/tools/bin/../lib/gcc/arm-none-eabi/7.3.1/thumb/v6-m\libgcc.a(eqdf2.o)
 .debug_frame   0x0000000000002fa8       0x38 c:/st/stm32cubeide_1.0.2/stm32cubeide/plugins/com.st.stm32cube.ide.mcu.externaltools.gnu-tools-for-stm32.7-2018-q2-update.win32_1.0.0.201904181610/tools/bin/../lib/gcc/arm-none-eabi/7.3.1/thumb/v6-m\libgcc.a(gedf2.o)
 .debug_frame   0x0000000000002fe0       0x38 c:/st/stm32cubeide_1.0.2/stm32cubeide/plugins/com.st.stm32cube.ide.mcu.externaltools.gnu-tools-for-stm32.7-2018-q2-update.win32_1.0.0.201904181610/tools/bin/../lib/gcc/arm-none-eabi/7.3.1/thumb/v6-m\libgcc.a(ledf2.o)
 .debug_frame   0x0000000000003018       0x3c c:/st/stm32cubeide_1.0.2/stm32cubeide/plugins/com.st.stm32cube.ide.mcu.externaltools.gnu-tools-for-stm32.7-2018-q2-update.win32_1.0.0.201904181610/tools/bin/../lib/gcc/arm-none-eabi/7.3.1/thumb/v6-m\libgcc.a(muldf3.o)
 .debug_frame   0x0000000000003054       0x3c c:/st/stm32cubeide_1.0.2/stm32cubeide/plugins/com.st.stm32cube.ide.mcu.externaltools.gnu-tools-for-stm32.7-2018-q2-update.win32_1.0.0.201904181610/tools/bin/../lib/gcc/arm-none-eabi/7.3.1/thumb/v6-m\libgcc.a(subdf3.o)
 .debug_frame   0x0000000000003090       0x2c c:/st/stm32cubeide_1.0.2/stm32cubeide/plugins/com.st.stm32cube.ide.mcu.externaltools.gnu-tools-for-stm32.7-2018-q2-update.win32_1.0.0.201904181610/tools/bin/../lib/gcc/arm-none-eabi/7.3.1/thumb/v6-m\libgcc.a(fixdfsi.o)
 .debug_frame   0x00000000000030bc       0x2c c:/st/stm32cubeide_1.0.2/stm32cubeide/plugins/com.st.stm32cube.ide.mcu.externaltools.gnu-tools-for-stm32.7-2018-q2-update.win32_1.0.0.201904181610/tools/bin/../lib/gcc/arm-none-eabi/7.3.1/thumb/v6-m\libgcc.a(floatsidf.o)
 .debug_frame   0x00000000000030e8       0x28 c:/st/stm32cubeide_1.0.2/stm32cubeide/plugins/com.st.stm32cube.ide.mcu.externaltools.gnu-tools-for-stm32.7-2018-q2-update.win32_1.0.0.201904181610/tools/bin/../lib/gcc/arm-none-eabi/7.3.1/thumb/v6-m\libgcc.a(floatunsidf.o)
